:100000000C9432000C9451000C944F000C944F004F
:100010000C944F000C9458020C944F000C944F0019
:100020000C944F000C944F000C944F000C94F4016E
:100030000C944F000C944F000C944F000C944F0004
:100040000C944F000C944F000C944F000C944F00F4
:100050000C944F00350439043D044104450449041F
:100060004D04510411241FBECFE5D8E0DEBFCDBF43
:1000700010E0A0E6B0E0E8E3F4E102C005900D92E4
:10008000A236B107D9F720E0A2E6B0E001C01D9288
:10009000A73AB207E1F70E94FD000C941A0A0C94EB
:1000A00000001F920F920FB60F9211242F933F93CF
:1000B0004F935F936F937F938F939F93AF93BF9370
:1000C000EF93FF939091880081E0892780938800C7
:1000D00081110FC00E94FC030E940A040E941604B2
:1000E0000E9448060E945A07109287000E94E0036F
:1000F00012C00E94F6030E94A70381E0809386004D
:1001000085E00E94FC062FEF44E650E060E070E0DE
:1001100080E00E94A207FF91EF91BF91AF919F9164
:100120008F917F916F915F914F913F912F910F90A0
:100130000FBE0F901F901895813001F590916100CE
:100140009B34E0F465E0690F60936100809160008A
:1001500090E00E94AA0581E080938400809386004D
:100160000E94480685E00E94EA052FEF48E853E127
:1001700060E070E080E00E9490060895613001F533
:10018000909161009432E0F06BEF690F6093610031
:100190008091600090E00E94AA0581E08093840035
:1001A000809386000E94480685E00E94EA052FEFB2
:1001B00048E853E160E070E080E00E949006089516
:1001C000613021F490916100933231F08130A1F4DB
:1001D000809161008B3481F481E0809386000E94DD
:1001E000480685E00E94EA052FEF48E853E160E009
:1001F00070E080E00E949006089580E00E94BF05B4
:1002000062E083E00E94760560E080E00E94520692
:1002100060E080E00E94640781E00E942C040E945C
:100220003A030E944F030E94F0030E9402040E94BE
:100230000E040E941A0485E00E94FC062FEF44E69B
:1002400050E060E070E080E00E94A2070E94550349
:100250008093A6000E9444038093A50080918800AB
:100260008823A1F380918400813039F4809160006B
:1002700090E00E94B6058093610080918700811113
:1002800019C08091A500813021F08091A6008130B5
:1002900089F4C1E0C093870085E00E94EA052FEF52
:1002A00048E853E160E070E080E00E949006C0936F
:1002B0006A0006C06091A6008091A5000E949C0083
:1002C000C0916100D0E0BE0165507109072E000C9D
:1002D000880B990B0E94B6084B015C01C09080000E
:1002E000D0908100E0908200F0908300A7019601F9
:1002F0000E940E08181614F1BE016B5F7F4F072E87
:10030000000C880B990B0E94B6089B01AC01C70139
:10031000B6010E940E0818168CF00E940A040E9472
:100320001604109285000E9420048FE39CE9019737
:10033000F1F700C000000E94260427C0A701960123
:10034000C501B4010E946609181644F481E0809347
:1003500085000E9406040E94160417C0BE016B5F50
:100360007F4F072E000C880B990B0E94B6089B014B
:10037000AC01C701B6010E946609181634F4109248
:1003800085000E940A040E94120480918700811156
:100390005DCF60918000709181008091820090918A
:1003A00083000E948508862F0E9409034FCFAC016D
:1003B00090E060E070E00BC0E92FF0E0EE0FFF1F6F
:1003C000E40FF51F20813181620F731F9F5F9A3008
:1003D00098F380E090E00E94B40820E030E040E232
:1003E00051E40E94130808951F920F920FB60F92C6
:1003F00011242F933F934F935F936F937F938F932A
:100400009F93AF93BF93EF93FF93809186008130CA
:1004100051F41092660010926700109268001092DA
:1004200069001092860040916600509167006091CB
:100430006800709169008091910090919200A09164
:100440009300B0919400481759076A077B0761F43D
:100450000E94480610928700109266001092670072
:100460001092680010926900809166009091670078
:10047000A0916800B09169000196A11DB11D809303
:10048000660090936700A0936800B0936900FF91A5
:10049000EF91BF91AF919F918F917F916F915F91FC
:1004A0004F913F912F910F900FBE0F901F90189575
:1004B0001F920F920FB60F9211242F933F934F93D9
:1004C0005F936F937F938F939F93AF93BF93CF93DC
:1004D000DF93EF93FF9380918700813069F48091DF
:1004E0006A00882329F0809161000E94090304C0FA
:1004F0000E94F7020E9403038091620090916300C2
:10050000A0916400B091650040919F005091A000BF
:100510006091A1007091A20084179507A607B70704
:1005200060F40196A11DB11D809362009093630059
:10053000A0936400B093650041C0C0916B00D0E00F
:100540000E945804BC0180E090E00E94B40820E0C2
:1005500030E04AEF53E40E946B0920E030E040E8CD
:100560005AE30E946B09CC0FDD1FC459DF4F0E9474
:1005700085087983688380916B008F5F80936B001F
:100580008A30A0F010926B008CE690E00E94D701B8
:100590006093800070938100809382009093830029
:1005A00090916A0081E0892780936A00109262002E
:1005B000109263001092640010926500FF91EF9119
:1005C000DF91CF91BF91AF919F918F917F916F916B
:1005D0005F914F913F912F910F900FBE0F901F9001
:1005E000189541E061E081E00E94D104089540E067
:1005F00061E081E00E94D104089541E062E081E081
:100600000E94D104089540E062E081E00E94D1049C
:100610000895CF939DEC899F912D1124292F269524
:1006200026952695220F322F330F330F230F821B6F
:10063000282FC92FC695C695C6952295207F2BBB1E
:100640000E94F1020E9403038FE39CE90197F1F7F6
:1006500000C000009C2F9295907F9BBB0E94F702E8
:100660000E94FD028FE39CE90197F1F700C00000B2
:10067000CF91089540E060E081E00E94600460E076
:1006800081E00E947605089560E081E00E944205C5
:10069000EFE3FCE93197F1F700C00000089540E076
:1006A00066E083E00E946004089566E083E00E94B3
:1006B0004205EFE3FCE93197F1F700C0000008952F
:1006C000CF93C82F40E061E081E00E94D10440E078
:1006D00062E081E00E94D10440E063E081E00E949A
:1006E000D1048BB39C2F907F8F70892B8BBB41E003
:1006F00063E081E00E94D1048FE99FE00197F1F768
:1007000000C0000040E063E081E00E94D10420E1ED
:10071000C29FC00111249BB39F70892B8BBB41E00A
:1007200063E081E00E94D1048FE99FE00197F1F737
:1007300000C0000040E063E081E00E94D1048FE14E
:100740009EE40197F1F700C00000CF91089541E0C9
:1007500061E081E00E94600441E062E081E00E948B
:10076000600441E063E081E00E94600441E064E0F5
:1007700080E00E94600441E065E080E00E94600447
:1007800041E066E080E00E94600441E067E080E0D4
:100790000E94600483E30E94600382E30E9460037E
:1007A00088E20E94600382E00E9460038CE00E9465
:1007B000600381E00E94600386E00E946003089568
:1007C00040E061E081E00E94600440E062E081E09E
:1007D0000E94600440E063E081E00E9460040895AC
:1007E00041E062E082E00E946004089541E062E03E
:1007F00082E00E94D104089540E062E082E00E941D
:10080000D104089584B3806884BB089585B380685B
:1008100085BB089585B38F7785BB089581B38860C4
:1008200081BB089582B3886082BB089582B3877FBD
:1008300082BB089541E062E080E00E946004089578
:1008400041E062E080E00E94D104089540E062E06F
:1008500080E00E94D104089590E08830910520F551
:10086000FC01E65DFF4F0C94FA0987B1806487B9FB
:100870001BC087B1816487B917C087B1826487B90B
:1008800013C087B1836487B90FC087B1846487B907
:100890000BC087B1856487B907C087B1866487B903
:1008A00003C087B1876487B986B1876A86B908951E
:1008B00086B1806486B9349BFECF84B195B108952A
:1008C000442319F04130C9F10895813091F028F0A6
:1008D0008230D9F0833029F108952AB381E090E085
:1008E00002C0880F991F6A95E2F7809582238ABB20
:1008F000089527B381E090E002C0880F991F6A95A0
:10090000E2F78095822387BB089524B381E090E0CD
:1009100002C0880F991F6A95E2F78095822384BBF5
:10092000089521B381E090E002C0880F991F6A9575
:10093000E2F78095822381BB0895813089F028F009
:100940008230C9F0833011F108952AB381E090E03C
:1009500002C0880F991F6A95E2F7822B8ABB08951F
:1009600027B381E090E002C0880F991F6A95E2F7F3
:10097000822B87BB089524B381E090E002C0880FEA
:10098000991F6A95E2F7822B84BB089521B381E019
:1009900090E002C0880F991F6A95E2F7822B81BB15
:1009A0000895442319F04130C9F10895813091F040
:1009B00028F08230D9F0833029F108952BB381E0FB
:1009C00090E002C0880F991F6A95E2F78095822314
:1009D0008BBB089528B381E090E002C0880F991F77
:1009E0006A95E2F78095822388BB089525B381E05C
:1009F00090E002C0880F991F6A95E2F780958223E4
:100A000085BB089522B381E090E002C0880F991F52
:100A10006A95E2F78095822382BB0895813089F040
:100A200028F08230C9F0833011F108952BB381E0B2
:100A300090E002C0880F991F6A95E2F7822B8BBB6A
:100A4000089528B381E090E002C0880F991F6A954D
:100A5000E2F7822B88BB089525B381E090E002C0C5
:100A6000880F991F6A95E2F7822B85BB089522B300
:100A700081E090E002C0880F991F6A95E2F7822B0F
:100A800082BB0895EFE3FCE93197F1F700C0000065
:100A9000813079F028F08230A9F08330E1F024C071
:100AA00089B390E002C0959587956A95E2F78170C9
:100AB000089586B390E002C0959587956A95E2F710
:100AC0008170089583B390E002C0959587956A95EB
:100AD000E2F78170089580B390E002C09595879504
:100AE0006A95E2F78170089580E00895813089F079
:100AF00028F08230C9F0833011F108952BB381E0E2
:100B000090E002C0880F991F6A95E2F7822B8BBB99
:100B1000089528B381E090E002C0880F991F6A957C
:100B2000E2F7822B88BB089525B381E090E002C0F4
:100B3000880F991F6A95E2F7822B85BB089522B32F
:100B400081E090E002C0880F991F6A95E2F7822B3E
:100B500082BB0895E199FECF9FBB8EBB6DBB8CB36A
:100B600084608CBB8CB382608CBB0895E199FECF0E
:100B70009FBB8EBB8CB381608CBB8DB3089591B34A
:100B80009B7F91BB91B3977F91BB91B39B7F91BBAF
:100B9000789481110AC08BB780648BBF85B782605F
:100BA00085BF85B7816085BF0895813051F48BB7CB
:100BB00080688BBF85B7886085BF85B7846085BF37
:100BC0000895823031F48BB780628BBF84B7806424
:100BD00084BF0895833061F128F4813049F0823078
:100BE000B9F008958430A1F1853009F441C0089529
:100BF00081E090E0909396008093950083B78B7F7F
:100C000083BF83B78D7F83BF83B7816083BF089520
:100C100088E090E0909396008093950083B78B7F57
:100C200083BF83B7826083BF83B78E7F83BF0895FE
:100C300080E490E0909396008093950083B78B7F3B
:100C400083BF83B7826083BF83B7816083BF08950A
:100C500080E091E0909396008093950083B7846044
:100C600083BF83B78D7F83BF83B78E7F83BF089594
:100C700080E094E0909396008093950083B7846021
:100C800083BF83B78D7F83BF83B7816083BF0895A0
:100C900083B78B7F83BF83B78D7F83BF83B78E7FFF
:100CA00083BF0895F894882319F0823059F013C057
:100CB00083B7877F83BF83B78F7B83BF89B781600B
:100CC00089BF09C083B7886083BF83B78F7B83BF29
:100CD00089B7826089BF613069F028F0623089F09D
:100CE0006330B1F01BC083B78F7D83BF83B78F7E26
:100CF00083BF14C083B78F7D83BF83B7806183BFF9
:100D00000DC083B7806283BF83B78F7E83BF06C069
:100D100083B7806283BF83B7806183BF789408956F
:100D20000F93811137C02091950030919600F90101
:100D3000F295E295EF70EF27FF70EF27A8EEB3E092
:100D40009A01AB010E94000A2E2F30E040E050E0F3
:100D50000E94D809BB27A52F942F832F0196A11D90
:100D6000B11D8093910090939200A0939300B09353
:100D7000940080E091E0A0E0B0E0821B9109A1091D
:100D8000B1098093890090938A00A0938B00B0935F
:100D90008C0030C0823071F52CBF209195003091CD
:100DA0009600F901F295E295EF70EF27FF70EF27BB
:100DB000A8EEB3E09A01AB010E94000A2E2F30E0AA
:100DC00040E050E00E94D809CA01B9010CB7202FB9
:100DD00030E040E050E00E94D809DA01C9010196F4
:100DE000A11DB11D80938D0090938E00A0938F0064
:100DF000B09390000F910895833061F128F4813011
:100E000049F08230B9F008958430A1F1853009F4B9
:100E100041C0089581E090E09093A4008093A300E6
:100E200085B58B7F85BD85B58D7F85BD85B5816099
:100E300085BD089588E090E09093A4008093A3007E
:100E400085B58B7F85BD85B5826085BD85B58E7F77
:100E500085BD089580E490E09093A4008093A30062
:100E600085B58B7F85BD85B5826085BD85B5816083
:100E700085BD089580E091E09093A4008093A30045
:100E800085B5846085BD85B58D7F85BD85B58E7F33
:100E900085BD089580E094E09093A4008093A30022
:100EA00085B5846085BD85B58D7F85BD85B581603F
:100EB00085BD089585B58B7F85BD85B58D7F85BD45
:100EC00085B58E7F85BD0895F894882319F082300A
:100ED00059F013C085B5877F85BD85B58F7B85BDEE
:100EE00089B7806489BF09C085B5886085BD85B52F
:100EF0008F7B85BD89B7806889BF613069F028F034
:100F0000623089F06330B1F01BC085B58F7D85BD3F
:100F100085B58F7E85BD14C085B58F7D85BD85B5B2
:100F2000806185BD0DC085B5806285BD85B58F7E2C
:100F300085BD06C085B5806285BD85B5806185BDEE
:100F4000789408950F93811137C02091A3003091B8
:100F5000A400F901F295E295EF70EF27FF70EF27FB
:100F6000A8EEB3E09A01AB010E94000A2E2F30E0F8
:100F700040E050E00E94D809BB27A52F942F832F73
:100F80000196A11DB11D80939F009093A000A09396
:100F9000A100B093A20080E091E0A0E0B0E0821B4D
:100FA0009109A109B1098093970090939800A093AB
:100FB0009900B0939A0030C0823071F523BD209122
:100FC000A3003091A400F901F295E295EF70EF27AC
:100FD000FF70EF27A8EEB3E09A01AB010E94000A70
:100FE0002E2F30E040E050E00E94D809CA01B9013C
:100FF0000CB7202F30E040E050E00E94D809DA0121
:10100000C9010196A11DB11D80939B0090939C0086
:10101000A0939D00B0939E000F9108950E94F10847
:1010200008F481E008950E9427080C942C090E947E
:10103000250958F00E941E0940F029F45F3F29F06D
:101040000C94150951110C9460090C941B090E9411
:101050003D0968F39923B1F3552391F3951B550B83
:10106000BB27AA2762177307840738F09F5F5F4F7B
:10107000220F331F441FAA1FA9F335D00E2E3AF0BA
:10108000E0E832D091505040E695001CCAF72BD0D2
:10109000FE2F29D0660F771F881FBB1F2617370723
:1010A0004807AB07B0E809F0BB0B802DBF01FF2755
:1010B00093585F4F3AF09E3F510578F00C94150914
:1010C0000C9460095F3FE4F3983ED4F386957795DE
:1010D0006795B795F7959F5FC9F7880F911D96950E
:1010E000879597F90895E1E0660F771F881FBB1F6A
:1010F000621773078407BA0720F0621B730B840B17
:10110000BA0BEE1F88F7E09508950E94450988F014
:101110009F5798F0B92F9927B751B0F0E1F0660FBB
:10112000771F881F991F1AF0BA95C9F714C0B130FC
:1011300091F00E945F09B1E008950C945F09672F58
:10114000782F8827B85F39F0B93FCCF3869577952B
:101150006795B395D9F73EF4909580957095619514
:101160007F4F8F4F9F4F0895E89409C097FB3EF43F
:1011700090958095709561957F4F8F4F9F4F9923E4
:10118000A9F0F92F96E9BB279395F6958795779562
:101190006795B795F111F8CFFAF4BB0F11F460FF22
:1011A0001BC06F5F7F4F8F4F9F4F16C0882311F07A
:1011B00096E911C0772321F09EE8872F762F05C08E
:1011C000662371F096E8862F70E060E02AF09A9529
:1011D000660F771F881FDAF7880F9695879597F91E
:1011E0000895990F0008550FAA0BE0E8FEEF1616B8
:1011F0001706E807F907C0F012161306E407F5070B
:1012000098F0621B730B840B950B39F40A2661F07E
:10121000232B242B252B21F408950A2609F4A14021
:10122000A6958FEF811D811D089597F99F6780E82E
:1012300070E060E008959FEF80EC089500240A9428
:101240001616170618060906089500240A941216A1
:101250001306140605060895092E0394000C11F4D4
:10126000882352F0BB0F40F4BF2B11F460FF04C081
:101270006F5F7F4F8F4F9F4F089557FD9058440FDA
:10128000551F59F05F3F71F04795880F97FB991FE5
:1012900061F09F3F79F087950895121613061406A2
:1012A000551FF2CF4695F1DF08C01616170618062F
:1012B000991FF1CF86957105610508940895E8940A
:1012C000BB2766277727CB0197F908950E94F1087D
:1012D00008F48FEF08950E947E090C942C090E9457
:1012E0001E0938F00E94250920F0952311F00C9476
:1012F00015090C941B0911240C9460090E943D09E6
:1013000070F3959FC1F3950F50E0551F629FF00158
:10131000729FBB27F00DB11D639FAA27F00DB11D71
:10132000AA1F649F6627B00DA11D661F829F2227FA
:10133000B00DA11D621F739FB00DA11D621F839F81
:10134000A00D611D221F749F3327A00D611D231F57
:10135000849F600D211D822F762F6A2F11249F57A5
:1013600050409AF0F1F088234AF0EE0FFF1FBB1FA8
:10137000661F771F881F91505040A9F79E3F510567
:1013800080F00C9415090C9460095F3FE4F3983EDB
:10139000D4F3869577956795B795F795E7959F5F11
:1013A000C1F7FE2B880F911D9695879597F90895A3
:1013B000A1E21A2EAA1BBB1BFD010DC0AA1FBB1F59
:1013C000EE1FFF1FA217B307E407F50720F0A21BCB
:1013D000B30BE40BF50B661F771F881F991F1A9438
:1013E00069F760957095809590959B01AC01BD0162
:1013F000CF010895EE0FFF1F0590F491E02D0994A1
:101400000E940B0AA59F900DB49F900DA49F800D84
:10141000911D11240895A29FB001B39FC001A39F05
:10142000700D811D1124911DB29F700D811D11241D
:08143000911D0895F894FFCF0F
:02143800403C36
:00000001FF
