S0250000456C6563747269635F57617465725F4865617465725F70726F6A6563742E7372656364
S11300000C942A000C9449000C9447000C9447006B
S11300100C9447000C9447000C9447000C94470040
S11300200C9447000C9447000C9447000C94140162
S11300300C9447000C9447000C9447000C94470020
S11300400C9447000C9447000C9447000C94470010
S11300500C94470011241FBECFE5D8E0DEBFCDBF0E
S113006010E0A0E6B0E0E6EAFBE002C005900D92E5
S1130070A236B107D9F720E0A2E6B0E001C01D9294
S1130080A937B207E1F70E94CC000C94D1050C9477
S113009000001F920F920FB60F9211242F933F93DB
S11300A04F935F936F937F938F939F93AF93BF937C
S11300B0EF93FF939091680081E089278093680013
S11300C0811105C00E94B4020E94980204C00E94DB
S11300D0AE020E94E301FF91EF91BF91AF919F9116
S11300E08F917F916F915F914F913F912F910F90DD
S11300F00FBE0F901F9018958130B9F49091600055
S11301009B3498F49B5F90936000809366000E94F8
S1130110950485E00E9437042FEF48E853E160E03E
S113012070E080E00E94DD0408956130C1F4909194
S113013060009432A0F095509093600081E0809329
S113014066000E94950485E00E9437042FEF48E87A
S113015053E160E070E080E00E94DD0408956130C6
S113016021F490916000933231F08130A1F48091B8
S113017060008B3481F481E0809366000E949504D2
S113018085E00E9437042FEF48E853E160E070E017
S113019080E00E94DD0408950E94E3010E94A80209
S11301A00E94BA020E948B010E947A0180E00E94A0
S11301B00C0462E083E00E94D80360E080E00E94C7
S11301C09F040E949101809378000E948001809393
S11301D0770090916700911119C0813021F09091BE
S11301E07800913099F481E08093670085E00E9463
S11301F037042FEF48E853E160E070E080E00E94AC
S1130200DD041092780010927700DBCF60917800C3
S11302100E947C000E941C026091600070E080E0FB
S113022090E00E947A02CDCF1F920F920FB60F92E8
S113023011242F933F934F935F936F937F938F93E7
S11302409F93AF93BF93EF93FF93809166008130A8
S113025051F41092620010926300109264001092A4
S113026065001092660040916200509163006091B5
S11302706400709165008091710090917200A0916A
S11302807300B0917400481759076A077B0771F42B
S11302900E949504109267000E94BE0210926200B0
S11302A010926300109264001092650080916200C5
S11302B090916300A0916400B09165000196A11D26
S11302C0B11D8093620090936300A0936400B09387
S11302D06500FF91EF91BF91AF919F918F917F91B5
S11302E06F915F914F913F912F910F900FBE0F909F
S11302F01F90189540E060E081E00E94C2020895DA
S113030060E081E00E94A403EFE3FCE93197F1F798
S113031000C00000089540E066E083E00E94C2024D
S1130320089566E083E00E94A403EFE3FCE93197BB
S1130330F1F700C000000895CF93C82F40E061E0BA
S113034081E00E94330340E062E081E00E943303D5
S113035040E063E081E00E9433038BB39C2F907FE5
S11303608F70892B8BBB41E063E081E00E943303F3
S11303708FE99FE00197F1F700C0000040E063E0DF
S113038081E00E94330320E1C29FC00111249BB38A
S11303909F70892B8BBB41E063E081E00E943303B3
S11303A08FE99FE00197F1F700C0000040E063E0AF
S11303B081E00E9433038FE19EE40197F1F700C0CE
S11303C00000CF91089541E061E081E00E94C20203
S11303D041E062E081E00E94C20241E063E081E02A
S11303E00E94C20241E064E080E00E94C20241E057
S11303F065E080E00E94C20241E066E080E00E9485
S1130400C20241E067E080E00E94C20283E30E94EE
S11304109C0182E30E949C0188E20E949C0182E08C
S11304200E949C018CE00E949C0181E00E949C013E
S113043086E00E949C01089581E00E949C01089539
S1130440CF93C82F41E061E081E00E94330340E094
S113045062E081E00E94330340E063E081E00E94B7
S113046033038BB39C2F907F8F70892B8BBB41E020
S113047063E081E00E9433038FE99FE00197F1F785
S113048000C0000040E063E081E00E94330320E10B
S1130490C29FC00111249BB39F70892B8BBB41E089
S11304A063E081E00E9433038FE99FE00197F1F755
S11304B000C0000040E063E081E00E9433038FE16C
S11304C09EE40197F1F700C00000CF910895CF9307
S11304D0DF93EC0109C00E9420028FE39CE901979D
S11304E0F1F700C00000219688818111F4CFDF91DB
S11304F0CF910895CF93DF93CDB7DEB72A970FB688
S1130500F894DEBF0FBECDBF2AE030E0AE014F5FEE
S11305105F4F0E948505CE0101960E9467022A96CC
S11305200FB6F894DEBF0FBECDBFDF91CF91089513
S113053040E061E081E00E94C20240E062E081E0CC
S11305400E94C20240E063E081E00E94C20208957A
S113055041E062E082E00E94C202089541E062E06C
S113056082E00E943303089540E062E082E00E944A
S11305703303089584B3806884BB089585B3805899
S113058085BB0895442319F04130C9F108958130A1
S113059091F028F08230D9F0833029F108952AB3FC
S11305A081E090E002C0880F991F6A95E2F7809578
S11305B082238ABB089527B381E090E002C0880FAC
S11305C0991F6A95E2F78095822387BB089524B327
S11305D081E090E002C0880F991F6A95E2F7809548
S11305E0822384BB089521B381E090E002C0880F88
S11305F0991F6A95E2F78095822381BB0895813023
S113060089F028F08230C9F0833011F108952AB3BB
S113061081E090E002C0880F991F6A95E2F7822B6F
S11306208ABB089527B381E090E002C0880F991F28
S11306306A95E2F7822B87BB089524B381E090E0AA
S113064002C0880F991F6A95E2F7822B84BB089534
S113065021B381E090E002C0880F991F6A95E2F708
S1130660822B81BB0895442319F04130C9F10895C8
S1130670813091F028F08230D9F0833029F1089547
S11306802BB381E090E002C0880F991F6A95E2F7CE
S1130690809582238BBB089528B381E090E002C04B
S11306A0880F991F6A95E2F78095822388BB089585
S11306B025B381E090E002C0880F991F6A95E2F7A4
S11306C08095822385BB089522B381E090E002C027
S11306D0880F991F6A95E2F78095822382BB08955B
S11306E0813089F028F08230C9F0833011F1089507
S11306F02BB381E090E002C0880F991F6A95E2F75E
S1130700822B8BBB089528B381E090E002C0880F50
S1130710991F6A95E2F7822B88BB089525B381E07F
S113072090E002C0880F991F6A95E2F7822B85BB7F
S1130730089522B381E090E002C0880F991F6A9562
S1130740E2F7822B82BB0895EFE3FCE93197F1F7DE
S113075000C00000813079F028F08230A9F08330A5
S1130760E1F024C089B390E002C0959587956A951D
S1130770E2F78170089586B390E002C0959587955D
S11307806A95E2F78170089583B390E002C095956D
S113079087956A95E2F78170089580B390E002C06E
S11307A0959587956A95E2F78170089580E008959C
S11307B0813089F028F08230C9F0833011F1089536
S11307C02BB381E090E002C0880F991F6A95E2F78D
S11307D0822B8BBB089528B381E090E002C0880F80
S11307E0991F6A95E2F7822B88BB089525B381E0AF
S11307F090E002C0880F991F6A95E2F7822B85BBAF
S1130800089522B381E090E002C0880F991F6A9591
S1130810E2F7822B82BB089591B39B7F91BB91B386
S1130820977F91BB91B39B7F91BB789481110AC050
S11308308BB780648BBF85B7826085BF85B78160C5
S113084085BF0895813051F48BB780688BBF85B71D
S1130850886085BF85B7846085BF0895823031F490
S11308608BB780628BBF84B7806484BF0895833064
S113087061F128F4813049F08230B9F00895843070
S1130880A1F1853009F441C0089581E090E090938E
S113089076008093750083B78B7F83BF83B78D7F8A
S11308A083BF83B7816083BF089588E090E090930D
S11308B076008093750083B78B7F83BF83B7826094
S11308C083BF83B78E7F83BF089580E490E09093C5
S11308D076008093750083B78B7F83BF83B7826074
S11308E083BF83B7816083BF089580E091E09093D4
S11308F076008093750083B7846083BF83B78D7F50
S113090083BF83B78E7F83BF089580E094E0909384
S113091076008093750083B7846083BF83B78D7F2F
S113092083BF83B7816083BF089583B78B7F83BF01
S113093083B78D7F83BF83B78E7F83BF0895F89479
S1130940882319F0823059F013C083B7877F83BF9F
S113095083B78F7B83BF89B7816089BF09C083B7A1
S1130960886083BF83B78F7B83BF89B7826089BF69
S1130970613069F028F0623089F06330B1F01BC057
S113098083B78F7D83BF83B78F7E83BF14C083B744
S11309908F7D83BF83B7806183BF0DC083B78062BF
S11309A083BF83B78F7E83BF06C083B7806283BF54
S11309B083B7806183BF789408950F93811137C002
S11309C02091750030917600F901F295E295EF706F
S11309D0EF27FF70EF27A8EEB3E09A01AB010E9466
S11309E06B052E2F30E040E050E00E944905BB2704
S11309F0A52F942F832F0196A11DB11D8093710003
S1130A0090937200A0937300B093740080E091E01F
S1130A10A0E0B0E0821B9109A109B10980936900AB
S1130A2090936A00A0936B00B0936C0030C0823046
S1130A3071F52CBF2091750030917600F901F29583
S1130A40E295EF70EF27FF70EF27A8EEB3E09A016D
S1130A50AB010E946B052E2F30E040E050E00E9475
S1130A604905CA01B9010CB7202F30E040E050E03D
S1130A700E944905DA01C9010196A11DB11D8093A7
S1130A806D0090936E00A0936F00B09370000F916F
S1130A900895A1E21A2EAA1BBB1BFD010DC0AA1FBB
S1130AA0BB1FEE1FFF1FA217B307E407F50720F0D3
S1130AB0A21BB30BE40BF50B661F771F881F991F4E
S1130AC01A9469F760957095809590959B01AC0197
S1130AD0BD01CF0108950E947605A59F900DB49F96
S1130AE0900DA49F800D911D11240895A29FB00123
S1130AF0B39FC001A39F700D811D1124911DB29F4E
S1130B00700D811D1124911D08952532310520F4A5
S1130B10223010F00C949005FA011082CA01089555
S1130B20BB272A3051F4992342F4BDE29095809575
S1130B30709561957F4F8F4F9F4F0C94A005BB27F5
S1130B40FA01A62F6217710581059105330B30FB5D
S1130B5066F0AA27660F771F881F991FAA1FA2177E
S1130B6010F0A21B63953850A9F7A05DAA3308F0D2
S1130B70A95DA19336F7B111B1931082CA010C9407
S1130B80C105DC01FC01672F71917723E1F73297EE
S1130B9004C07C916D9370836291AE17BF07C8F354
S1090BA00895F894FFCF54
S1050BA6320017
S9030000FC
