S0250000456C6563747269635F57617465725F4865617465725F70726F6A6563742E7372656364
S11300000C9432000C9451000C944F000C944F004B
S11300100C944F000C9425020C944F000C944F0048
S11300200C944F000C944F000C944F000C94C1019D
S11300300C944F000C944F000C944F000C944F0000
S11300400C944F000C944F000C944F000C944F00F0
S11300500C944F009003940398039C03A003A403FF
S1130060A803AC0311241FBECFE5D8E0DEBFCDBF8B
S113007010E0A0E6B0E0EEEAF1E102C005900D92D6
S1130080A236B107D9F720E0A2E6B0E001C01D9284
S1130090A43AB207E1F70E94FD000C94D5080C9431
S11300A000001F920F920FB60F9211242F933F93CB
S11300B04F935F936F937F938F939F93AF93BF936C
S11300C0EF93FF939091850081E0892780938500C9
S11300D0811111C00E9457030E9465030E9471039D
S11300E00E94A3050E94B506109284000E94E202B9
S11300F00E94EE0210C00E94510381E080938300AD
S113010085E00E9457062FEF44E650E060E070E07F
S113011080E00E94FD06FF91EF91BF91AF919F9106
S11301208F917F916F915F914F913F912F910F909C
S11301300FBE0F901F901895813001F590916100CA
S11301409B34E0F465E0690F609361008091600086
S113015090E00E94050581E08093810080938300F4
S11301600E94A30585E00E9445052FEF48E853E16E
S113017060E070E080E00E94EB050895613001F5D5
S1130180909161009432E0F06BEF690F609361002D
S11301908091600090E00E94050581E080938100D9
S11301A0809383000E94A30585E00E9445052FEFFC
S11301B048E853E160E070E080E00E94EB050895B8
S11301C0613021F490916100933231F08130A1F4D7
S11301D0809161008B3481F481E0809383000E94DC
S11301E0A30585E00E9445052FEF48E853E160E050
S11301F070E080E00E94EB05089580E00E941A05FB
S113020062E083E00E94D10460E080E00E94AD05DA
S113021060E080E00E94BF0681E00E9487030E94A4
S113022025030E943A030E944B030E945D030E942F
S113023069030E9475030E94B80285E00E94570674
S11302402FEF44E650E060E070E080E00E94FD069D
S11302500E9440038093A3000E942F038093A20076
S1130260809185008823A1F380918100813039F445
S11302708091600090E00E9411058093610080915C
S11302808400811119C08091A200813021F08091F5
S1130290A300813089F4C1E0C093840085E00E940A
S11302A045052FEF48E853E160E070E080E00E94EC
S11302B0EB05C0936A0006C06091A3008091A20080
S11302C00E949C0080918400811104C08091800070
S11302D00E94F4022091800030E08091610090E05F
S11302E0AC014550510924173507BCF0BC016B5FC4
S11302F07F4F621773078CF00E9465030E9471039D
S1130300109282000E947B038FE39CE90197F1F72E
S113031000C000000E9481039BCF2417350744F4DA
S113032081E0809382000E9461030E94710390CF58
S11303300596821793070CF08BCF109282000E94CF
S113034065030E946D0384CFBC0190E020E030E09F
S11303500BC0E92FF0E0EE0FFF1FE60FF71F4081FF
S11303605181240F351F9F5F9A3098F3ADECBCEC9C
S11303700E94BB089695879596958795969587953F
S113038008951F920F920FB60F9211242F933F934B
S11303904F935F936F937F938F939F93AF93BF9389
S11303A0EF93FF9380918300813051F410926600A3
S11303B010926700109268001092690010928300F6
S11303C040916600509167006091680070916900E7
S11303D080918E0090918F00A0919000B091910037
S11303E0481759076A077B0761F40E94A305109216
S11303F084001092660010926700109268001092B8
S113040069008091660090916700A0916800B091A6
S113041069000196A11DB11D809366009093670049
S1130420A0936800B0936900FF91EF91BF91AF91E1
S11304309F918F917F916F915F914F913F912F91F8
S11304400F900FBE0F901F9018951F920F920FB62A
S11304500F9211242F933F934F935F936F937F9346
S11304608F939F93AF93BF93CF93DF93EF93FF93B8
S113047080918400813069F480916A00882329F096
S1130480809161000E94F40204C00E94E2020E9472
S1130490EE028091620090916300A0916400B0919B
S11304A0650040919C0050919D0060919E00709168
S11304B09F0084179507A607B70760F40196A11D4E
S11304C0B11D8093620090936300A0936400B09385
S11304D065003BC0C0916B00D0E00E94B303BC0137
S11304E080E090E00E94980720E030E04AEF53E477
S11304F00E94260820E030E040E85AE30E942608E3
S1130500CC0FDD1FC459DF4F0E94690779836883CC
S113051080916B008F5F80936B008A3070F0109233
S11305206B008CE690E00E94A4018093800090917F
S11305306A0081E0892780936A0010926200109219
S113054063001092640010926500FF91EF91DF91B7
S1130550CF91BF91AF919F918F917F916F915F9157
S11305604F913F912F910F900FBE0F901F901895B0
S113057041E061E081E00E94BB0341E062E081E090
S11305800E94BB0341E064E080E00E94BB0341E0C1
S113059065E080E00E94BB0341E066E080E00E94E9
S11305A0BB0341E067E080E00E94BB0341E063E0FD
S11305B081E00E94BB03089541E061E081E00E9474
S11305C02C04089540E061E081E00E942C04089529
S11305D041E062E081E00E942C04089540E062E082
S11305E081E00E942C040895CF939DEC899F912D66
S11305F01124292F269526952695220F322F330F65
S1130600330F230F821B282FC92FC695C695C69575
S11306102295207F2BBB0E94DC020E94EE028FE316
S11306209CE90197F1F700C000009C2F9295907F00
S11306309BBB0E94E2020E94E8028FE39CE90197BF
S1130640F1F700C00000CF91089540E060E081E040
S11306500E94BB0360E081E00E94D104089560E041
S113066081E00E949D04EFE3FCE93197F1F700C0BB
S11306700000089540E066E083E00E94BB03089513
S113068066E083E00E949D04EFE3FCE93197F1F713
S113069000C00000089541E062E082E00E94BB03D4
S11306A0089541E062E082E00E942C04089540E055
S11306B062E082E00E942C04089584B3806884BBC5
S11306C0089585B3806885BB089585B38F7785BB0E
S11306D0089581B3886081BB089582B3886082BB2A
S11306E0089582B3877F82BB089541E062E080E091
S11306F00E94BB03089541E062E080E00E942C0464
S1130700089540E062E080E00E942C04089590E0A7
S11307108830910520F5FC01E65DFF4F0C94B50887
S113072087B1806487B91BC087B1816487B917C05A
S113073087B1826487B913C087B1836487B90FC056
S113074087B1846487B90BC087B1856487B907C052
S113075087B1866487B903C087B1876487B986B1D6
S1130760876A86B9089586B1806486B9349BFECFC2
S113077084B195B10895442319F04130C9F1089525
S1130780813091F028F08230D9F0833029F1089536
S11307902AB381E090E002C0880F991F6A95E2F7BE
S11307A0809582238ABB089527B381E090E002C03C
S11307B0880F991F6A95E2F78095822387BB089575
S11307C024B381E090E002C0880F991F6A95E2F794
S11307D08095822384BB089521B381E090E002C018
S11307E0880F991F6A95E2F78095822381BB08954B
S11307F0813089F028F08230C9F0833011F10895F6
S11308002AB381E090E002C0880F991F6A95E2F74D
S1130810822B8ABB089527B381E090E002C0880F41
S1130820991F6A95E2F7822B87BB089524B381E070
S113083090E002C0880F991F6A95E2F7822B84BB6F
S1130840089521B381E090E002C0880F991F6A9552
S1130850E2F7822B81BB0895442319F04130C9F19A
S11308600895813091F028F08230D9F0833029F155
S113087008952BB381E090E002C0880F991F6A9518
S1130880E2F7809582238BBB089528B381E090E042
S113089002C0880F991F6A95E2F78095822388BB6E
S11308A0089525B381E090E002C0880F991F6A95EE
S11308B0E2F78095822385BB089522B381E090E01E
S11308C002C0880F991F6A95E2F78095822382BB44
S11308D00895813089F028F08230C9F0833011F115
S11308E008952BB381E090E002C0880F991F6A95A8
S11308F0E2F7822B8BBB089528B381E090E002C01D
S1130900880F991F6A95E2F7822B88BB089525B357
S113091081E090E002C0880F991F6A95E2F7822B6C
S113092085BB089522B381E090E002C0880F991F2F
S11309306A95E2F7822B82BB0895EFE3FCE93197D5
S1130940F1F700C00000813079F028F08230A9F07E
S11309508330E1F024C089B390E002C09595879577
S11309606A95E2F78170089586B390E002C0959588
S113097087956A95E2F78170089583B390E002C089
S1130980959587956A95E2F78170089580B390E014
S113099002C0959587956A95E2F78170089580E085
S11309A00895813089F028F08230C9F0833011F144
S11309B008952BB381E090E002C0880F991F6A95D7
S11309C0E2F7822B8BBB089528B381E090E002C04C
S11309D0880F991F6A95E2F7822B88BB089525B387
S11309E081E090E002C0880F991F6A95E2F7822B9C
S11309F085BB089522B381E090E002C0880F991F5F
S1130A006A95E2F7822B82BB0895E199FECF9FBBE2
S1130A108EBB6DBB8CB384608CBB8CB382608CBB8F
S1130A200895E199FECF9FBB8EBB8CB381608CBBD4
S1130A308DB3089591B39B7F91BB91B3977F91BB85
S1130A4091B39B7F91BB789481110AC08BB780646A
S1130A508BBF85B7826085BF85B7816085BF0895E8
S1130A60813051F48BB780688BBF85B7886085BFB0
S1130A7085B7846085BF0895823031F48BB7806276
S1130A808BBF84B7806484BF0895833061F128F4F8
S1130A90813049F08230B9F008958430A1F1853075
S1130AA009F441C0089581E090E09093930080930D
S1130AB0920083B78B7F83BF83B78D7F83BF83B758
S1130AC0816083BF089588E090E0909393008093C1
S1130AD0920083B78B7F83BF83B7826083BF83B762
S1130AE08E7F83BF089580E490E090939300809379
S1130AF0920083B78B7F83BF83B7826083BF83B742
S1130B00816083BF089580E091E090939300809387
S1130B10920083B7846083BF83B78D7F83BF83B71D
S1130B208E7F83BF089580E094E090939300809338
S1130B30920083B7846083BF83B78D7F83BF83B7FD
S1130B40816083BF089583B78B7F83BF83B78D7F15
S1130B5083BF83B78E7F83BF0895F894882319F0E9
S1130B60823059F013C083B7877F83BF83B78F7BED
S1130B7083BF89B7816089BF09C083B7886083BF99
S1130B8083B78F7B83BF89B7826089BF613069F087
S1130B9028F0623089F06330B1F01BC083B78F7DD9
S1130BA083BF83B78F7E83BF14C083B78F7D83BF1A
S1130BB083B7806183BF0DC083B7806283BF83B76F
S1130BC08F7E83BF06C083B7806283BF83B7806193
S1130BD083BF789408950F93811137C020919200B8
S1130BE030919300F901F295E295EF70EF27FF70D1
S1130BF0EF27A8EEB3E09A01AB010E94CA082E2F9A
S1130C0030E040E050E00E949308BB27A52F942FCA
S1130C10832F0196A11DB11D80938E0090938F00A8
S1130C20A0939000B093910080E091E0A0E0B0E048
S1130C30821B9109A109B1098093860090938700D2
S1130C40A0938800B093890030C0823071F52CBF26
S1130C502091920030919300F901F295E295EF70A2
S1130C60EF27FF70EF27A8EEB3E09A01AB010E94D3
S1130C70CA082E2F30E040E050E00E949308CA01D9
S1130C80B9010CB7202F30E040E050E00E949308F7
S1130C90DA01C9010196A11DB11D80938A009093C8
S1130CA08B00A0938C00B0938D000F910895833036
S1130CB061F128F4813049F08230B9F0089584302C
S1130CC0A1F1853009F441C0089581E090E090934A
S1130CD0A1008093A00085B58B7F85BD85B58D7FF0
S1130CE085BD85B5816085BD089588E090E09093C9
S1130CF0A1008093A00085B58B7F85BD85B58260FA
S1130D0085BD85B58E7F85BD089580E490E0909380
S1130D10A1008093A00085B58B7F85BD85B58260D9
S1130D2085BD85B5816085BD089580E091E090938F
S1130D30A1008093A00085B5846085BD85B58D7FB5
S1130D4085BD85B58E7F85BD089580E094E0909340
S1130D50A1008093A00085B5846085BD85B58D7F95
S1130D6085BD85B5816085BD089585B58B7F85BDBD
S1130D7085B58D7F85BD85B58E7F85BD0895F89435
S1130D80882319F0823059F013C085B5877F85BD5B
S1130D9085B58F7B85BD89B7806489BF09C085B55A
S1130DA0886085BD85B58F7B85BD89B7806889BF1F
S1130DB0613069F028F0623089F06330B1F01BC013
S1130DC085B58F7D85BD85B58F7E85BD14C085B500
S1130DD08F7D85BD85B5806185BD0DC085B580627B
S1130DE085BD85B58F7E85BD06C085B5806285BD10
S1130DF085B5806185BD789408950F93811137C0BE
S1130E002091A0003091A100F901F295E295EF70D4
S1130E10EF27FF70EF27A8EEB3E09A01AB010E9421
S1130E20CA082E2F30E040E050E00E949308BB2710
S1130E30A52F942F832F0196A11DB11D80939C0093
S1130E4090939D00A0939E00B0939F0080E091E05A
S1130E50A0E0B0E0821B9109A109B109809394003C
S1130E6090939500A0939600B093970030C0823081
S1130E7071F523BD2091A0003091A100F901F295F4
S1130E80E295EF70EF27FF70EF27A8EEB3E09A0129
S1130E90AB010E94CA082E2F30E040E050E00E94CF
S1130EA09308CA01B9010CB7202F30E040E050E0AC
S1130EB00E949308DA01C9010196A11DB11D809316
S1130EC0980090939900A0939A00B0939B000F917F
S1130ED008950E94050888F09F5798F0B92F992724
S1130EE0B751B0F0E1F0660F771F881F991F1AF011
S1130EF0BA95C9F714C0B13091F00E941F08B1E04F
S1130F0008950C941F08672F782F8827B85F39F04D
S1130F10B93FCCF3869577956795B395D9F73EF4A9
S1130F2090958095709561957F4F8F4F9F4F089551
S1130F30E89409C097FB3EF490958095709561956F
S1130F407F4F8F4F9F4F9923A9F0F92F96E9BB2725
S1130F509395F695879577956795B795F111F8CFA1
S1130F60FAF4BB0F11F460FF1BC06F5F7F4F8F4F0C
S1130F709F4F16C0882311F096E911C0772321F002
S1130F809EE8872F762F05C0662371F096E8862F9A
S1130F9070E060E02AF09A95660F771F881FDAF7F1
S1130FA0880F9695879597F9089597F99F6780E834
S1130FB070E060E008959FEF80EC089500240A94A7
S1130FC01616170618060906089500240A94121620
S1130FD01306140605060895092E0394000C11F453
S1130FE0882352F0BB0F40F4BF2B11F460FF04C000
S1130FF06F5F7F4F8F4F9F4F089557FD9058440F59
S1131000551F59F05F3F71F04795880F97FB991F63
S113101061F09F3F79F08795089512161306140620
S1131020551FF2CF4695F1DF08C0161617061806AD
S1131030991FF1CF86957105610508940895E89488
S1131040BB2766277727CB0197F908950E943908B3
S11310500C94EC070E94DE0738F00E94E50720F0AC
S1131060952311F00C94D5070C94DB0711240C94F0
S113107020080E94FD0770F3959FC1F3950F50E07F
S1131080551F629FF001729FBB27F00DB11D639F36
S1131090AA27F00DB11DAA1F649F6627B00DA11DDC
S11310A0661F829F2227B00DA11D621F739FB00D82
S11310B0A11D621F839FA00D611D221F749F3327F2
S11310C0A00D611D231F849F600D211D822F762F8B
S11310D06A2F11249F5750409AF0F1F088234AF068
S11310E0EE0FFF1FBB1F661F771F881F91505040D4
S11310F0A9F79E3F510580F00C94D5070C94200865
S11311005F3FE4F3983ED4F3869577956795B7955A
S1131110F795E7959F5FC1F7FE2B880F911D969574
S1131120879597F90895A1E21A2EAA1BBB1BFD010E
S11311300DC0AA1FBB1FEE1FFF1FA217B307E407B2
S1131140F50720F0A21BB30BE40BF50B661F771F0A
S1131150881F991F1A9469F76095709580959095EA
S11311609B01AC01BD01CF010895EE0FFF1F059057
S1131170F491E02D0994A29FB001B39FC001A39FF5
S1131180700D811D1124911DB29F700D811D1124BC
S1131190911D08950E94BB08A59F900DB49F900DCA
S11111A0A49F800D911D11240895F894FFCF93
S10511AE403CBF
S9030000FC
