S0250000456C6563747269635F57617465725F4865617465725F70726F6A6563742E7372656364
S11300000C9473000C9492000C9490000C94900047
S11300100C9490000C94AC020C9490000C949000FE
S11300200C9490000C9490000C9490000C940A0290
S11300300C9490000C9490000C9490000C949000FC
S11300400C9490000C9490000C9490000C949000EC
S11300500C9490009105950599059D05A105A505AC
S1130060A905AD0507634236B79BD8A71A39685668
S113007018AEBAAB558C1D3CB7CC5763BD6DEDFDC6
S1130080753EF6177231BF000000803F0800000083
S1130090BE922449123EABAAAA2ABECDCCCC4C3E79
S11300A000000080BEABAAAAAA3E00000000BF0068
S11300B00000803F0000000000084178D3BB438764
S11300C0D1133D190E3CC3BD4282AD2B3E68EC8278
S11300D076BED98FE1A93E4C80EFFFBE01C4FF7FFD
S11300E03F000000000011241FBECFE5D8E0DEBFB2
S11300F0CDBF10E0A0E6B0E0ECECFBE102C005905F
S11301000D92A236B107D9F720E0A2E6B0E001C013
S11301101D92A63AB207E1F70E9433010C94E40D54
S11301200C9400001F920F920FB60F9211242F937C
S11301303F934F935F936F937F938F939F93AF936B
S1130140BF93EF93FF939091850081E0892780937B
S11301508500811113C00E9453050E9461050E940D
S11301606D050E949B070E944F08109284000E9414
S113017071030E947D030E94830307C00E944D0502
S11301800E94470381E080938300FF91EF91BF9128
S1130190AF919F918F917F916F915F914F913F911B
S11301A02F910F900FBE0F901F9018958130F1F48E
S11301B0909161009B34D0F465E0690F6093610015
S11301C08091600090E00E94060781E080938300A4
S11301D00E949B0785E00E943D072FEF48E853E10A
S11301E060E070E080E00E94E30708956130F1F47C
S11301F0909161009432D0F06BEF690F60936100CD
S11302008091600090E00E94060781E08093830063
S11302100E949B0785E00E943D072FEF48E853E1C9
S113022060E070E080E00E94E3070895613021F40B
S113023090916100933231F08130A1F4809161009A
S11302408B3481F481E0809383000E949B0785E0D6
S11302500E943D072FEF48E853E160E070E080E042
S11302600E94E307089580E00E94120762E083E0A1
S11302700E94D20660E080E00E94A50760E080E072
S11302800E94BB0885E00E945D082FEF44E650E021
S113029060E070E080E00E94F90881E00E94880537
S11302A00E94BA030E94CB030E9447050E9459058D
S11302B00E9465050E9476050E94D1038093A500E3
S11302C00E94C0038093A400909185009923A1F318
S11302D090918400911119C0813021F09091A50072
S11302E0913099F481E08093840085E00E943D0779
S11302F02FEF48E853E160E070E080E00E94E307FC
S11303001092A5001092A40004C06091A5000E9460
S1130310D60060916100C62FD0E0BE01655071091E
S1130320072E000C880B990B0E94810AC0907F0055
S1130330D0908000E0908100F0908200A7019601A7
S11303400E94310B18162CF40E945D050E946D0565
S113035032C0BE016B5F7F4F072E000C880B990BD8
S11303600E94810A9B01AC01C701B6010E94310BB6
S113037018162CF40E9461050E9469051CC0BE0178
S1130380DD0F880B990B0E94810A9B01AC01C70108
S1130390B6010E94D20981110EC00E9461050E941B
S11303A06D050E947C058FE39CE90197F1F700C07D
S11303B000000E9482058091840081117DCF6091AC
S11303C07F007091800080918100909182000E9452
S11303D0500A862F0E9489036FCFAC0190E060E041
S11303E070E00BC0E92FF0E0EE0FFF1FE40FF51FE4
S11303F020813181620F731F9F5F9A3098F380E0F0
S113040090E00E947F0A20E030E040E251E40E9444
S1130410D70908951F920F920FB60F9211244F928D
S11304205F926F927F928F929F92AF92BF92CF9280
S1130430DF92EF92FF920F932F933F934F935F932B
S11304406F937F938F939F93AF93BF93EF93FF9398
S113045080918300813051F4109262001092630005
S11304601092640010926500109283004090620024
S113047050906300609064007090650060918E00FD
S113048070918F00809190009091910046165706CC
S11304906806790669F40E949B0710928400109202
S11304A0620010926300109264001092650023C0F1
S11304B02DEC3CEC4CEC5CEC0E946F0D00E20E94D5
S11304C09C0D822E932EA42EB52EA5019401569533
S11304D04795379527955695479537952795C301A1
S11304E0B2010E943C0D672B682B692B21F480918B
S11304F061000E9489038091620090916300A09141
S11305006400B09165000196A11DB11D8093620045
S113051090936300A0936400B0936500FF91EF9102
S1130520BF91AF919F918F917F916F915F914F9107
S11305303F912F910F91FF90EF90DF90CF90BF905C
S1130540AF909F908F907F906F905F904F900F909F
S11305500FBE0F901F9018951F920F920FB60F9217
S113056011240F931F932F933F934F935F936F9394
S11305707F938F939F93AF93BF93CF93DF93EF9327
S1130580FF9380919E0090919F00092E000CAA0B6E
S1130590BB0B4091660050916700609168007091B8
S11305A06900481759076A077B0768F44F5F5F4F74
S11305B06F4F7F4F409366005093670060936800CD
S11305C0709369004FC00E947105C0916A00D0E029
S11305D00E94B40504EF11E09C01209FC001219FFB
S11305E0900D309F900D1124892F86958695FE01DC
S11305F0EE0FFF1FE559FF4F808311820E94CB0449
S11306000E94B4059C01209FC001219F900D309F42
S1130610900D1124BC01672F77276695669580E0BD
S113062090E00E947F0A0E94290580916A008F5FF2
S113063080936A008A3010F010926A00109266006B
S11306401092670010926800109269008BE690E0A7
S11306500E94ED0160937F0070938000809381007D
S113066090938200FF91EF91DF91CF91BF91AF9171
S11306709F918F917F916F915F914F913F912F91B6
S11306801F910F910F900FBE0F901F90189541E08E
S113069061E081E00E94BC0541E062E081E00E94EB
S11306A0BC0541E064E080E00E94BC0541E065E0F7
S11306B080E00E94BC0541E066E080E00E94BC0549
S11306C041E067E080E00E94BC0541E063E081E036
S11306D00E94BC05089541E061E081E00E942D067E
S11306E0089540E061E081E00E942D06089541E014
S11306F062E081E00E942D06089540E062E081E01E
S11307000E942D06089540E063E081E00E942D06DA
S11307100895CF939DEC899F912D1124292F26951F
S113072026952695220F322F330F330F230F821B6A
S1130730282FC92FC695C695C6952295207F2BBB19
S11307400E946B030E947D038FE39CE90197F1F7FC
S113075000C000009C2F9295907F9BBB0E94710368
S11307600E9477038FE39CE90197F1F700C0000032
S1130770CF91089540E060E081E00E94BC050895B7
S113078060E081E00E949E06EFE3FCE93197F1F717
S113079000C00000089540E066E083E00E94BC05CC
S11307A0089566E083E00E949E06EFE3FCE931973A
S11307B0F1F700C0000008956150710920E030E0B5
S11307C00EC0DC01A20FB31F4C91FC01E60FF71F12
S11307D050815C9340832F5F3F4F6150710926170E
S11307E037077CF308950F931F93CF93DF938B0107
S11307F09A01C0E0D0E00CC0F801EC0FFD1F6AE0E4
S113080070E00E94280D805D8083862F972F2196AB
S1130810009791F706C0F801EC0FFD1F80E3808379
S11308202196C217D307BCF3BE01C8010E94DC03A2
S1130830F801EC0FFD1F1082CE01DF91CF911F91C3
S11308400F9108954F925F926F927F928F929F9231
S1130850AF92BF92EF92FF920F931F93CF93DF93C8
S11308602B013C017A0189010E94490A4B015C0178
S1130870072E000C880B990B0E94810A9B01AC0186
S1130880C301B2010E9465092B013C0140E050E024
S1130890B701C4010E94F303EC010115110529F10C
S11308A0F701E80FF91F8EE28083B801012E000CD6
S11308B0880B990B0E94810A9B01AC0160E070E0F7
S11308C080E291E40E94A30B9B01AC01C301B2013D
S11308D00E94360B2196CE0DDF1D0E94490ADC01D1
S11308E0CB01A801BE010E94F303DF91CF911F91B8
S11308F00F91FF90EF90BF90AF909F908F907F905B
S11309006F905F904F900895CF93C82F40E061E0BF
S113091081E00E942D0640E062E081E00E942D0605
S113092040E063E081E00E942D068BB39C2F907F12
S11309308F70892B8BBB41E063E081E00E942D0620
S11309408FE99FE00197F1F700C0000040E063E009
S113095081E00E942D0620E1C29FC00111249BB3B7
S11309609F70892B8BBB41E063E081E00E942D06E0
S11309708FE99FE00197F1F700C0000040E063E0D9
S113098081E00E942D068FE19EE40197F1F700C0FB
S11309900000CF91089581E00E9484040895CF93CC
S11309A0C82F41E061E081E00E942D0640E062E052
S11309B081E00E942D0640E063E081E00E942D0664
S11309C08BB39C2F907F8F70892B8BBB41E063E0AE
S11309D081E00E942D068FE99FE00197F1F700C0A6
S11309E0000040E063E081E00E942D0620E1C29F08
S11309F0C00111249BB39F70892B8BBB41E063E042
S1130A0081E00E942D068FE99FE00197F1F700C075
S1130A10000040E063E081E00E942D068FE19EE447
S1130A200197F1F700C00000CF910895CF93DF93B1
S1130A30EC0109C00E94CF048FE39CE90197F1F710
S1130A4000C00000219688818111F4CFDF91CF91FD
S1130A500895CF93DF93CDB7DEB72A970FB6F894F6
S1130A60DEBF0FBECDBF23E030E0AE014F5F5F4F6E
S1130A700E942204CE0101960E9416052A960FB602
S1130A80F894DEBF0FBECDBFDF91CF91089541E052
S1130A9062E082E00E94BC05089541E062E082E0E9
S1130AA00E942D06089540E062E082E00E942D0637
S1130AB0089584B3806884BB089585B3806885BB3A
S1130AC0089585B38F7785BB089581B3886081BB12
S1130AD0089582B3886082BB089582B3877F82BB06
S1130AE0089592B388E0892782BB089541E062E0CB
S1130AF080E00E94BC05089541E062E080E00E942D
S1130B002D06089540E062E080E00E942D060895DD
S1130B1090E08830910520F5FC01E65DFF4F0C94D0
S1130B205E0D87B1806487B91BC087B1816487B9C2
S1130B3017C087B1826487B913C087B1836487B94A
S1130B400FC087B1846487B90BC087B1856487B946
S1130B5007C087B1866487B903C087B1876487B942
S1130B6086B1876A86B9089586B1806486B9349B54
S1130B70FECF84B195B10895442319F04130C9F1F1
S1130B800895813091F028F08230D9F0833029F132
S1130B9008952AB381E090E002C0880F991F6A95F6
S1130BA0E2F7809582238ABB089527B381E090E021
S1130BB002C0880F991F6A95E2F78095822387BB4C
S1130BC0089524B381E090E002C0880F991F6A95CC
S1130BD0E2F78095822384BB089521B381E090E0FD
S1130BE002C0880F991F6A95E2F78095822381BB22
S1130BF00895813089F028F08230C9F0833011F1F2
S1130C0008952AB381E090E002C0880F991F6A9585
S1130C10E2F7822B8ABB089527B381E090E002C0FB
S1130C20880F991F6A95E2F7822B87BB089524B336
S1130C3081E090E002C0880F991F6A95E2F7822B49
S1130C4084BB089521B381E090E002C0880F991F0E
S1130C506A95E2F7822B81BB0895442319F0413051
S1130C60C9F10895813091F028F08230D9F08330B1
S1130C7029F108952BB381E090E002C0880F991FF9
S1130C806A95E2F7809582238BBB089528B381E0AF
S1130C9090E002C0880F991F6A95E2F7809582233D
S1130CA088BB089525B381E090E002C0880F991FA6
S1130CB06A95E2F78095822385BB089522B381E08B
S1130CC090E002C0880F991F6A95E2F7809582230D
S1130CD082BB0895813089F028F08230C9F08330D6
S1130CE011F108952BB381E090E002C0880F991FA1
S1130CF06A95E2F7822B8BBB089528B381E090E0DC
S1130D0002C0880F991F6A95E2F7822B88BB089569
S1130D1025B381E090E002C0880F991F6A95E2F73D
S1130D20822B85BB089522B381E090E002C0880F36
S1130D30991F6A95E2F7822B82BB0895EFE3FCE9E1
S1130D403197F1F700C00000813079F028F082304B
S1130D50A9F08330E1F024C089B390E002C09595F6
S1130D6087956A95E2F78170089586B390E002C092
S1130D70959587956A95E2F78170089583B390E01D
S1130D8002C0959587956A95E2F78170089580B3BE
S1130D9090E002C0959587956A95E2F78170089571
S1130DA080E00895813089F028F08230C9F08330E2
S1130DB011F108952BB381E090E002C0880F991FD0
S1130DC06A95E2F7822B8BBB089528B381E090E00B
S1130DD002C0880F991F6A95E2F7822B88BB089599
S1130DE025B381E090E002C0880F991F6A95E2F76D
S1130DF0822B85BB089522B381E090E002C0880F66
S1130E00991F6A95E2F7822B82BB0895E199FECF80
S1130E109FBB8EBB6DBB8CB384608CBB8CB3826078
S1130E208CBB089591B39B7F91BB91B3977F91BB8A
S1130E3091B39B7F91BB789481110AC08BB7806476
S1130E408BBF85B7826085BF85B7816085BF0895F4
S1130E50813051F48BB780688BBF85B7886085BFBC
S1130E6085B7846085BF0895823031F48BB7806282
S1130E708BBF84B7806484BF0895833061F128F404
S1130E80813049F08230B9F008958430A1F1853081
S1130E9009F441C0089581E090E090939300809319
S1130EA0920083B78B7F83BF83B78D7F83BF83B764
S1130EB0816083BF089588E090E0909393008093CD
S1130EC0920083B78B7F83BF83B7826083BF83B76E
S1130ED08E7F83BF089580E490E090939300809385
S1130EE0920083B78B7F83BF83B7826083BF83B74E
S1130EF0816083BF089580E091E090939300809394
S1130F00920083B7846083BF83B78D7F83BF83B729
S1130F108E7F83BF089580E094E090939300809344
S1130F20920083B7846083BF83B78D7F83BF83B709
S1130F30816083BF089583B78B7F83BF83B78D7F21
S1130F4083BF83B78E7F83BF0895F894882319F0F5
S1130F50823059F013C083B7877F83BF83B78F7BF9
S1130F6083BF89B7816089BF09C083B7886083BFA5
S1130F7083B78F7B83BF89B7826089BF613069F093
S1130F8028F0623089F06330B1F01BC083B78F7DE5
S1130F9083BF83B78F7E83BF14C083B78F7D83BF26
S1130FA083B7806183BF0DC083B7806283BF83B77B
S1130FB08F7E83BF06C083B7806283BF83B780619F
S1130FC083BF789408950F93811137C020919200C4
S1130FD030919300F901F295E295EF70EF27FF70DD
S1130FE0EF27A8EEB3E09A01AB010E94640D2E2F07
S1130FF030E040E050E00E943C0DBB27A52F942F29
S1131000832F0196A11DB11D80938E0090938F00B4
S1131010A0939000B093910080E091E0A0E0B0E054
S1131020821B9109A109B1098093860090938700DE
S1131030A0938800B093890030C0823071F52CBF32
S11310402091920030919300F901F295E295EF70AE
S1131050EF27FF70EF27A8EEB3E09A01AB010E94DF
S1131060640D2E2F30E040E050E00E943C0DCA0198
S1131070B9010CB7202F30E040E050E00E943C0D55
S1131080DA01C9010196A11DB11D80938A009093D4
S11310908B00A0938C00B0938D000F9108958EB5B2
S11310A08B7F8EBD8EB58D7F8EBD8EB58E7F8EBDB2
S11310B010929500109294000895833061F128F401
S11310C0813049F08230B9F008958430A1F185303F
S11310D009F441C0089581E090E09093A3008093C7
S11310E0A20085B58B7F85BD85B58D7F85BD85B512
S11310F0816085BD089588E090E09093A30080937B
S1131100A20085B58B7F85BD85B5826085BD85B51B
S11311108E7F85BD089580E490E09093A300809332
S1131120A20085B58B7F85BD85B5826085BD85B5FB
S1131130816085BD089580E091E09093A300809341
S1131140A20085B5846085BD85B58D7F85BD85B5D7
S11311508E7F85BD089580E094E09093A3008093F2
S1131160A20085B5846085BD85B58D7F85BD85B5B7
S1131170816085BD0895F894882319F0823059F070
S113118013C085B5877F85BD85B58F7B85BD89B740
S1131190806489BF09C085B5886085BD85B58F7BAE
S11311A085BD89B7806889BF613069F028F06230F5
S11311B089F06330B1F01BC085B58F7D85BD85B5E1
S11311C08F7E85BD14C085B58F7D85BD85B5806155
S11311D085BD0DC085B5806285BD85B58F7E85BD15
S11311E006C085B5806285BD85B5806185BD78946E
S11311F008950F93811137C02091A2003091A3006C
S1131200F901F295E295EF70EF27FF70EF27A8EE52
S1131210B3E09A01AB010E94640D2E2F30E040E050
S113122050E00E943C0DBB27A52F942F832F0196DD
S1131230A11DB11D80939E0090939F00A093A000D8
S1131240B093A10080E091E0A0E0B0E0821B91099E
S1131250A109B1098093960090939700A0939800F8
S1131260B093990030C0823071F523BD2091A20063
S11312703091A300F901F295E295EF70EF27FF702A
S1131280EF27A8EEB3E09A01AB010E94640D2E2F64
S113129030E040E050E00E943C0DCA01B9010CB7B7
S11312A0202F30E040E050E00E943C0DDA01C901FB
S11312B00196A11DB11D80939A0090939B00A09369
S11312C09C00B0939D000F9108955058BB27AA2706
S11312D00E947D090C94F70A0E94E90A38F00E94E2
S11312E0F00A20F039F49F3F19F426F40C94E60A2E
S11312F00EF4E095E7FB0C94E00AE92F0E94080B3A
S113130058F3BA17620773078407950720F079F436
S1131310A6F50C942A0B0EF4E0950B2EBA2FA02DF3
S11313200B01B90190010C01CA01A0011124FF278E
S1131330591B99F0593F50F4503E68F11A16F04089
S1131340A22F232F342F4427585FF3CF4695379588
S11313502795A795F0405395C9F77EF41F16BA0B4D
S1131360620B730B840BBAF09150A1F0FF0FBB1FFB
S1131370661F771F881FC2F70EC0BA0F621F731F44
S1131380841F48F4879577956795B795F7959E3FA1
S113139008F0B0CF9395880F08F09927EE0F979532
S11313A0879508950E94BC0A08F481E008950E947C
S11313B0EB090C94F70A0E94F00A58F00E94E90A1B
S11313C040F029F45F3F29F00C94E00A51110C9489
S11313D02B0B0C94E60A0E94080B68F39923B1F3D3
S11313E0552391F3951B550BBB27AA276217730747
S11313F0840738F09F5F5F4F220F331F441FAA1FDB
S1131400A9F335D00E2E3AF0E0E832D09150504096
S1131410E695001CCAF72BD0FE2F29D0660F771F44
S1131420881FBB1F261737074807AB07B0E809F02A
S1131430BB0B802DBF01FF2793585F4F3AF09E3FAF
S1131440510578F00C94E00A0C942B0B5F3FE4F305
S1131450983ED4F3869577956795B795F7959F5FF2
S1131460C9F7880F911D9695879597F90895E1E03E
S1131470660F771F881FBB1F621773078407BA079D
S113148020F0621B730B840BBA0BEE1F88F7E095F8
S113149008950E94500A6894B1110C942B0B08957E
S11314A00E94100B88F09F5798F0B92F9927B751D5
S11314B0B0F0E1F0660F771F881F991F1AF0BA95F4
S11314C0C9F714C0B13091F00E942A0BB1E008951D
S11314D00C942A0B672F782F8827B85F39F0B93F0F
S11314E0CCF3869577956795B395D9F73EF49095A7
S11314F08095709561957F4F8F4F9F4F0895E89425
S113150009C097FB3EF490958095709561957F4F47
S11315108F4F9F4F9923A9F0F92F96E9BB279395F5
S1131520F695879577956795B795F111F8CFFAF405
S1131530BB0F11F460FF1BC06F5F7F4F8F4F9F4F36
S113154016C0882311F096E911C0772321F09EE894
S1131550872F762F05C0662371F096E8862F70E0FA
S113156060E02AF09A95660F771F881FDAF7880FD4
S11315709695879597F90895990F0008550FAA0B2A
S1131580E0E8FEEF16161706E807F907C0F0121692
S11315901306E407F50798F0621B730B840B950B95
S11315A039F40A2661F0232B242B252B21F40895EA
S11315B00A2609F4A140A6958FEF811D811D089587
S11315C097F99F6780E870E060E008959FEF80ECF2
S11315D0089500240A941616170618060906089595
S11315E000240A9412161306140605060895092EFB
S11315F00394000C11F4882352F0BB0F40F4BF2B6A
S113160011F460FF04C06F5F7F4F8F4F9F4F0895A9
S113161057FD9058440F551F59F05F3F71F047959F
S1131620880F97FB991F61F09F3F79F08795089584
S1131630121613061406551FF2CF4695F1DF08C0A3
S1131640161617061806991FF1CF869571056105C0
S113165008940895E894BB2766277727CB0197F968
S113166008950E94BC0A08F48FEF08950E94490B64
S11316700C94F70A0E94E90A38F00E94F00A20F05C
S1131680952311F00C94E00A0C94E60A11240C94AE
S11316902B0B0E94080B70F3959FC1F3950F50E03C
S11316A0551F629FF001729FBB27F00DB11D639F10
S11316B0AA27F00DB11DAA1F649F6627B00DA11DB6
S11316C0661F829F2227B00DA11D621F739FB00D5C
S11316D0A11D621F839FA00D611D221F749F3327CC
S11316E0A00D611D231F849F600D211D822F762F65
S11316F06A2F11249F5750409AF0F1F088234AF042
S1131700EE0FFF1FBB1F661F771F881F91505040AD
S1131710A9F79E3F510580F00C94E00A0C942B0B22
S11317205F3FE4F3983ED4F3869577956795B79534
S1131730F795E7959F5FC1F7FE2B880F911D96954E
S1131740879597F90895FA01EE0FFF1F309621054A
S11317503105A1F16115710561F48038BFE39B0780
S113176049F168949038810561F08038BFEF9B0798
S113177041F099234AF5FF3FE1053105210519F1AF
S1131780E8940894E795D901AA2329F4AB2FBE2F36
S1131790F85FD0F310C0FF5F70F4A695E0F7F73957
S11317A050F019F0FF3A38F49F779F930DD00F90C3
S11317B007FC9058089546F00C94E60A60E070E047
S11317C080E89FE308954FE79F775F934F933F939C
S11317D02F930E949E0C2F913F914F915F910E94F5
S11317E0360B0C94FB0B29F416F00C94E00A0C94C1
S11317F02A0B0C94E60A0E94100BA8F39638A0F763
S113180007F80F92E8942BE33AEA48EB5FE70E946B
S11318104C0B0F920F920F924DB75EB70F920E942E
S1131820E60CE4E6F0E00E942D0C4F915F91EF91FD
S1131830FF91E595EE1FFF1F49F0FE57E06844272E
S1131840EE0F441FFA95E1F74195550B0E94600C89
S11318500F9007FE0C94540C0895DF93CF931F93BD
S11318600F93FF92EF92DF927B018C01689406C084
S1131870DA2EEF010E94490BFE01E894A59125910F
S1131880359145915591A6F3EF010E947D09FE0122
S11318909701A801DA9469F7DF90EF90FF900F9118
S11318A01F91CF91DF9108959B01AC0160E070E03E
S11318B080E89FE30C94D7090C94E00A0C941A0D69
S11318C00E94100BD8F39923C9F3940F511DA3F36D
S11318D09150504094F059F0882332F0660F771FEE
S11318E0881F91505040C1F79E3F51052CF7880F37
S11318F0911D9695879597F908955F3FACF0983EB2
S11319009CF0BB27869577956795B79508F4B160E9
S11319109395C1F7BB0F58F711F460FFE8CF6F5FE1
S11319207F4F8F4F9F4FE3CF0C942B0B16F00C94EB
S11319301A0D0C94E60A68940C94E00A0E94100BA9
S1131940A8F39923C1F3AEF3DF93CF931F930F93BF
S1131950FF92C92FDD2788232AF02197660F771F6E
S1131960881FDAF720E030E040E85FEB9FE3883936
S113197020F0803E38F021968F770E946609ECE8CB
S1131980F0E004C00E946609E9EBF0E00E942D0C2F
S11319908B01BE01EC01FB2E6F5771097595771F02
S11319A0880B990B0E94810A28E132E741E35FE347
S11319B00E94490BAF2D9801AE01FF900F911F912A
S11319C0CF91DF910E947D090C94F70AFA01DC01A2
S11319D0AA0FBB1F9B01AC01BF5728F42227332752
S11319E04427507820C0B75190F4AB2F002446957B
S11319F037952795011CA395D2F3002071F0220F8F
S1131A00331F441FB395DAF30ED00C94650961308B
S1131A107105A0E88A07B94630F49B01AC0166273A
S1131A20772788279078309621F02083318342836A
S1131A30538308959F3F31F0915020F48795779513
S1131A406795B795880F911D9695879597F9089591
S1131A5097FB072E16F4009407D077FD09D00E9457
S1131A60B80D07FC05D03EF4909581959F4F0895DD
S1131A70709561957F4F0895A1E21A2EAA1BBB1B96
S1131A80FD010DC0AA1FBB1FEE1FFF1FA217B30746
S1131A90E407F50720F0A21BB30BE40BF50B661F5C
S1131AA0771F881F991F1A9469F760957095809520
S1131AB090959B01AC01BD01CF010895EE0FFF1F6E
S1131AC00590F491E02D09940E94CC0DA59F900DF2
S1131AD0B49F900DA49F800D911D11240895E89446
S1131AE0DF93CF93FC01DB010E94CC0D7F936F93B6
S1131AF0E9019A01AC01BF93AF933F932F93DF01A8
S1131B000E94CC0D26F46C1B7D0B820B930B9E0163
S1131B10EB01FC010E94DB0DAF91BF912F913F912E
S1131B200E94DB0DBE01CF01F9012F913F91CF91AE
S1131B30DF91089597FB10F8169400080F9308306E
S1131B4098F00850232F342F452F562F672F782FC6
S1131B50892F902DF4CF0594979587957795679560
S1131B6057954795379527950A95AAF70F910895A4
S1131B70AA1BBB1B51E107C0AA1FBB1FA617B707AF
S1131B8010F0A61BB70B881F991F5A95A9F78095CB
S1131B909095BC01CD010895A29FB001B39FC001EF
S1131BA0A39F700D811D1124911DB29F700D811D85
S1131BB01124911D08950E94CC0D460F571FC81F74
S10F1BC0D91F08F431960895F894FFCF63
S1051BCC4032A1
S9030000FC
