:100000000C9432000C9451000C944F000C944F004F
:100010000C944F000C9455020C944F000C944F001C
:100020000C944F000C944F000C944F000C94F10171
:100030000C944F000C944F000C944F000C944F0004
:100040000C944F000C944F000C944F000C944F00F4
:100050000C944F003C044004440448044C045004F5
:100060005404580411241FBECFE5D8E0DEBFCDBF35
:1000700010E0A0E6B0E0ECE3F4E102C005900D92E0
:10008000A236B107D9F720E0A2E6B0E001C01D9288
:10009000A73AB207E1F70E94FD000C941C0A0C94E9
:1000A00000001F920F920FB60F9211242F933F93CF
:1000B0004F935F936F937F938F939F93AF93BF9370
:1000C000EF93FF939091880081E0892780938800C7
:1000D00081110FC00E94FF030E940D040E941D04A5
:1000E0000E944F060E946107109287000E94E3035E
:1000F00012C00E94F9030E94AA0381E08093860047
:1001000085E00E9403072FEF44E650E060E070E0D6
:1001100080E00E94A907FF91EF91BF91AF919F915D
:100120008F917F916F915F914F913F912F910F90A0
:100130000FBE0F901F901895813001F590916100CE
:100140009B34E0F465E0690F60936100809160008A
:1001500090E00E94B10581E0809384008093860046
:100160000E944F0685E00E94F1052FEF48E853E119
:1001700060E070E080E00E9497060895613001F52C
:10018000909161009432E0F06BEF690F6093610031
:100190008091600090E00E94B10581E0809384002E
:1001A000809386000E944F0685E00E94F1052FEFA4
:1001B00048E853E160E070E080E00E94970608950F
:1001C000613021F490916100933231F08130A1F4DB
:1001D000809161008B3481F481E0809386000E94DD
:1001E0004F0685E00E94F1052FEF48E853E160E0FB
:1001F00070E080E00E949706089580E00E94C605A6
:1002000062E083E00E947D0560E080E00E94590684
:1002100060E080E00E946B0781E00E9433040E944E
:100220003D030E9452030E94F3030E9405040E94B2
:1002300015040E94210485E00E9403072FEF44E685
:1002400050E060E070E080E00E94A9070E9458033F
:100250008093A6000E9447038093A50080918800A8
:100260008823A1F380918400813039F4809160006B
:1002700090E00E94BD05809361008091870081110C
:1002800019C08091A500813021F08091A6008130B5
:1002900089F4C1E0C093870085E00E94F1052FEF4B
:1002A00048E853E160E070E080E00E949706C09368
:1002B0006A0006C06091A6008091A5000E949C0083
:1002C000C0916100D0E0BE0165507109072E000C9D
:1002D000880B990B0E94B8084B015C01C09080000C
:1002E000D0908100E0908200F0908300A7019601F9
:1002F0000E944409181644F481E0809385000E940E
:1003000009040E941D043EC0BE016B5F7F4F072E93
:10031000000C880B990B0E94B8082B013C019B0133
:10032000AC01C701B6010E94440918163CF41092B2
:1003300085000E940D040E94190424C0A7019601A3
:10034000C501B4010E9444098823CCF0A3019201A5
:10035000C701B6010E94440988238CF00E940D0455
:100360000E941D04109285000E9427048FE39CE9DF
:100370000197F1F700C000000E942D0403C08BB369
:1003800088608BBB80918700811160CF6091800075
:100390007091810080918200909183000E94870873
:1003A000862F0E940C0352CFAC0190E060E070E019
:1003B0000BC0E92FF0E0EE0FFF1FE40FF51F2081C7
:1003C0003181620F731F9F5F9A3098F380E090E055
:1003D0000E94B60820E030E040E251E40E94150897
:1003E00008951F920F920FB60F9211242F933F93EF
:1003F0004F935F936F937F938F939F93AF93BF932D
:10040000EF93FF9380918600813051F41092660043
:100410001092670010926800109269001092860096
:10042000409166005091670060916800709169008A
:100430008091910090919200A0919300B0919400CE
:10044000481759076A077B0761F40E944F0610920C
:100450008700109266001092670010926800109258
:1004600069008091660090916700A0916800B0914A
:1004700069000196A11DB11D8093660090936700ED
:10048000A0936800B0936900FF91EF91BF91AF9185
:100490009F918F917F916F915F914F913F912F919C
:1004A0000F900FBE0F901F9018951F920F920FB6CE
:1004B0000F9211242F933F934F935F936F937F93EA
:1004C0008F939F93AF93BF93CF93DF93EF93FF935C
:1004D00080918700813069F480916A00882329F037
:1004E000809161000E940C0304C00E94FA020E94E5
:1004F00006038091620090916300A0916400B09126
:10050000650040919F005091A0006091A100709102
:10051000A20084179507A607B70760F40196A11DEE
:10052000B11D8093620090936300A0936400B09328
:10053000650047C0C0916B00D0E00E945F04BC0121
:1005400080E090E00E94B60820E030E04AEF53E4FB
:100550000E94490920E030E040E85AE30E9449093E
:10056000CC0FDD1FC459DF4F0E9487087983688351
:1005700080916B008F5F80936B008A30D0F0109277
:100580006B008CE690E00E94D40160938000709331
:100590008100809382009093830080918500813058
:1005A00011F40E94110490916A0081E089278093E0
:1005B0006A00109262001092630010926400109220
:1005C0006500FF91EF91DF91CF91BF91AF919F9126
:1005D0008F917F916F915F914F913F912F910F90EC
:1005E0000FBE0F901F90189541E061E081E00E94DE
:1005F000D804089540E061E081E00E94D8040895A5
:1006000041E062E081E00E94D804089540E062E0A9
:1006100081E00E94D8040895CF939DEC899F912D8D
:100620001124292F269526952695220F322F330F38
:10063000330F230F821B282FC92FC695C695C69549
:100640002295207F2BBB0E94F4020E9406038FE3B9
:100650009CE90197F1F700C000009C2F9295907FD4
:100660009BBB0E94FA020E9400038FE39CE9019762
:10067000F1F700C00000CF91089540E060E081E014
:100680000E94670460E081E00E947D05089560E0BB
:1006900081E00E944905EFE3FCE93197F1F700C0E2
:1006A0000000089540E066E083E00E94670408953A
:1006B00066E083E00E944905EFE3FCE93197F1F73A
:1006C00000C000000895CF93C82F40E061E081E0B2
:1006D0000E94D80440E062E081E00E94D80440E03B
:1006E00063E081E00E94D8048BB39C2F907F8F70D1
:1006F000892B8BBB41E063E081E00E94D8048FE945
:100700009FE00197F1F700C0000040E063E081E066
:100710000E94D80420E1C29FC00111249BB39F70A6
:10072000892B8BBB41E063E081E00E94D8048FE914
:100730009FE00197F1F700C0000040E063E081E036
:100740000E94D8048FE19EE40197F1F700C00000F9
:10075000CF91089541E061E081E00E94670441E0AB
:1007600062E081E00E94670441E063E081E00E9472
:10077000670441E064E080E00E94670441E065E0D6
:1007800080E00E94670441E066E080E00E94670428
:1007900041E067E080E00E94670483E30E94630316
:1007A00082E30E94630388E20E94630382E00E9466
:1007B00063038CE00E94630381E00E94630386E090
:1007C0000E946303089540E061E081E00E946704B5
:1007D00040E062E081E00E94670440E063E081E085
:1007E0000E946704089541E062E082E00E9467048D
:1007F000089541E062E082E00E94D804089540E05C
:1008000062E082E00E94D804089584B3806884BBCB
:10081000089585B3806885BB089585B38F7785BBC0
:10082000089585B3805885BB089581B3886081BBE6
:10083000089582B3886082BB089582B3877F82BBAC
:10084000089541E062E080E00E946704089541E07D
:1008500062E080E00E94D804089540E062E080E019
:100860000E94D804089590E08830910520F5FC019D
:10087000E65DFF4F0C94FC0987B1806487B91BC00B
:1008800087B1816487B917C087B1826487B913C003
:1008900087B1836487B90FC087B1846487B90BC0FF
:1008A00087B1856487B907C087B1866487B903C0FB
:1008B00087B1876487B986B1876A86B9089586B19A
:1008C000806486B9349BFECF84B195B108954423EA
:1008D00019F04130C9F10895813091F028F082304B
:1008E000D9F0833029F108952AB381E090E002C065
:1008F000880F991F6A95E2F7809582238ABB089535
:1009000027B381E090E002C0880F991F6A95E2F753
:100910008095822387BB089524B381E090E002C0D4
:10092000880F991F6A95E2F78095822384BB08950A
:1009300021B381E090E002C0880F991F6A95E2F729
:100940008095822381BB0895813089F028F0823020
:10095000C9F0833011F108952AB381E090E002C01C
:10096000880F991F6A95E2F7822B8ABB089527B3F7
:1009700081E090E002C0880F991F6A95E2F7822B10
:1009800087BB089524B381E090E002C0880F991FCF
:100990006A95E2F7822B84BB089521B381E090E051
:1009A00002C0880F991F6A95E2F7822B81BB0895D8
:1009B000442319F04130C9F10895813091F028F0B5
:1009C0008230D9F0833029F108952BB381E090E093
:1009D00002C0880F991F6A95E2F7809582238BBB2E
:1009E000089528B381E090E002C0880F991F6A95AE
:1009F000E2F78095822388BB089525B381E090E0DB
:100A000002C0880F991F6A95E2F78095822385BB03
:100A1000089522B381E090E002C0880F991F6A9583
:100A2000E2F78095822382BB0895813089F028F017
:100A30008230C9F0833011F108952BB381E090E04A
:100A400002C0880F991F6A95E2F7822B8BBB08952D
:100A500028B381E090E002C0880F991F6A95E2F701
:100A6000822B88BB089525B381E090E002C0880FF7
:100A7000991F6A95E2F7822B85BB089522B381E026
:100A800090E002C0880F991F6A95E2F7822B82BB23
:100A90000895EFE3FCE93197F1F700C000008130E1
:100AA00079F028F08230A9F08330E1F024C089B3D6
:100AB00090E002C0959587956A95E2F78170089558
:100AC00086B390E002C0959587956A95E2F78170AC
:100AD000089583B390E002C0959587956A95E2F7F3
:100AE0008170089580B390E002C0959587956A95CE
:100AF000E2F78170089580E00895813089F028F050
:100B00008230C9F0833011F108952BB381E090E079
:100B100002C0880F991F6A95E2F7822B8BBB08955C
:100B200028B381E090E002C0880F991F6A95E2F730
:100B3000822B88BB089525B381E090E002C0880F26
:100B4000991F6A95E2F7822B85BB089522B381E055
:100B500090E002C0880F991F6A95E2F7822B82BB52
:100B60000895E199FECF9FBB8EBB6DBB8CB38460B3
:100B70008CBB8CB382608CBB0895E199FECF9FBB88
:100B80008EBB8CB381608CBB8DB3089591B39B7F7A
:100B900091BB91B3977F91BB91B39B7F91BB7894AD
:100BA00081110AC08BB780648BBF85B7826085BF17
:100BB00085B7816085BF0895813051F48BB7806817
:100BC0008BBF85B7886085BF85B7846085BF089572
:100BD000823031F48BB780628BBF84B7806484BF6E
:100BE0000895833061F128F4813049F08230B9F002
:100BF00008958430A1F1853009F441C0089581E061
:100C000090E0909396008093950083B78B7F83BF8D
:100C100083B78D7F83BF83B7816083BF089588E0EA
:100C200090E0909396008093950083B78B7F83BF6D
:100C300083B7826083BF83B78E7F83BF089580E4CC
:100C400090E0909396008093950083B78B7F83BF4D
:100C500083B7826083BF83B7816083BF089580E0DC
:100C600091E0909396008093950083B7846083BF52
:100C700083B78D7F83BF83B78E7F83BF089580E066
:100C800094E0909396008093950083B7846083BF2F
:100C900083B78D7F83BF83B7816083BF089583B798
:100CA0008B7F83BF83B78D7F83BF83B78E7F83BFE7
:100CB0000895F894882319F0823059F013C083B74F
:100CC000877F83BF83B78F7B83BF89B7816089BFED
:100CD00009C083B7886083BF83B78F7B83BF89B721
:100CE000826089BF613069F028F0623089F063303A
:100CF000B1F01BC083B78F7D83BF83B78F7E83BF67
:100D000014C083B78F7D83BF83B7806183BF0DC05D
:100D100083B7806283BF83B78F7E83BF06C083B7EC
:100D2000806283BF83B7806183BF789408950F93F7
:100D3000811137C02091950030919600F901F2950C
:100D4000E295EF70EF27FF70EF27A8EEB3E09A016E
:100D5000AB010E94020A2E2F30E040E050E00E94DA
:100D6000DA09BB27A52F942F832F0196A11DB11D52
:100D70008093910090939200A0939300B09394007D
:100D800080E091E0A0E0B0E0821B9109A109B109E7
:100D90008093890090938A00A0938B00B0938C007D
:100DA00030C0823071F52CBF2091950030919600B3
:100DB000F901F295E295EF70EF27FF70EF27A8EEAB
:100DC000B3E09A01AB010E94020A2E2F30E040E00E
:100DD00050E00E94DA09CA01B9010CB7202F30E0B7
:100DE00040E050E00E94DA09DA01C9010196A11D34
:100DF000B11D80938D0090938E00A0938F00B093CF
:100E000090000F910895833061F128F4813049F00A
:100E10008230B9F008958430A1F1853009F441C0E1
:100E2000089581E090E09093A4008093A30085B59D
:100E30008B7F85BD85B58D7F85BD85B5816085BD81
:100E4000089588E090E09093A4008093A30085B576
:100E50008B7F85BD85B5826085BD85B58E7F85BD5F
:100E6000089580E490E09093A4008093A30085B55A
:100E70008B7F85BD85B5826085BD85B5816085BD6B
:100E8000089580E091E09093A4008093A30085B53D
:100E9000846085BD85B58D7F85BD85B58E7F85BD1B
:100EA000089580E094E09093A4008093A30085B51A
:100EB000846085BD85B58D7F85BD85B5816085BD27
:100EC000089585B58B7F85BD85B58D7F85BD85B53D
:100ED0008E7F85BD0895F894882319F0823059F0EB
:100EE00013C085B5877F85BD85B58F7B85BD89B7E7
:100EF000806489BF09C085B5886085BD85B58F7B55
:100F000085BD89B7806889BF613069F028F062309B
:100F100089F06330B1F01BC085B58F7D85BD85B587
:100F20008F7E85BD14C085B58F7D85BD85B58061FB
:100F300085BD0DC085B5806285BD85B58F7E85BDBB
:100F400006C085B5806285BD85B5806185BD789414
:100F500008950F93811137C02091A3003091A40010
:100F6000F901F295E295EF70EF27FF70EF27A8EEF9
:100F7000B3E09A01AB010E94020A2E2F30E040E05C
:100F800050E00E94DA09BB27A52F942F832F0196EA
:100F9000A11DB11D80939F009093A000A093A1007C
:100FA000B093A20080E091E0A0E0B0E0821B910944
:100FB000A109B1098093970090939800A09399009C
:100FC000B0939A0030C0823071F523BD2091A30008
:100FD0003091A400F901F295E295EF70EF27FF70D0
:100FE000EF27A8EEB3E09A01AB010E94020A2E2F70
:100FF00030E040E050E00E94DA09CA01B9010CB7C4
:10100000202F30E040E050E00E94DA09DA01C90107
:101010000196A11DB11D80939B0090939C00A0930D
:101020009D00B0939E000F9108950E9429080C9492
:101030000A090E94030958F00E94FC0840F029F4B4
:101040005F3F29F00C94F30851110C943E090C9465
:10105000F9080E941B0968F39923B1F3552391F312
:10106000951B550BBB27AA2762177307840738F017
:101070009F5F5F4F220F331F441FAA1FA9F335D074
:101080000E2E3AF0E0E832D091505040E695001C28
:10109000CAF72BD0FE2F29D0660F771F881FBB1FE2
:1010A000261737074807AB07B0E809F0BB0B802DC0
:1010B000BF01FF2793585F4F3AF09E3F510578F0EC
:1010C0000C94F3080C943E095F3FE4F3983ED4F38C
:1010D000869577956795B795F7959F5FC9F7880FC0
:1010E000911D9695879597F90895E1E0660F771F12
:1010F000881FBB1F621773078407BA0720F0621BA3
:10110000730B840BBA0BEE1F88F7E09508950E94CD
:10111000230988F09F5798F0B92F9927B751B0F05D
:10112000E1F0660F771F881F991F1AF0BA95C9F76B
:1011300014C0B13091F00E943D09B1E008950C94C3
:101140003D09672F782F8827B85F39F0B93FCCF376
:10115000869577956795B395D9F73EF490958095E8
:10116000709561957F4F8F4F9F4F0895E89409C008
:1011700097FB3EF490958095709561957F4F8F4FCA
:101180009F4F9923A9F0F92F96E9BB279395F695E0
:10119000879577956795B795F111F8CFFAF4BB0F5E
:1011A00011F460FF1BC06F5F7F4F8F4F9F4F16C0C2
:1011B000882311F096E911C0772321F09EE8872F4C
:1011C000762F05C0662371F096E8862F70E060E008
:1011D0002AF09A95660F771F881FDAF7880F969581
:1011E000879597F9089597F99F6780E870E060E028
:1011F00008959FEF80EC089500240A9416161706B0
:1012000018060906089500240A94121613061406F7
:1012100005060895092E0394000C11F4882352F05A
:10122000BB0F40F4BF2B11F460FF04C06F5F7F4F12
:101230008F4F9F4F089557FD9058440F551F59F0F9
:101240005F3F71F04795880F97FB991F61F09F3FB3
:1012500079F087950895121613061406551FF2CFDC
:101260004695F1DF08C0161617061806991FF1CF2C
:1012700086957105610508940895E894BB27662753
:101280007727CB0197F908950E94B60908F48FEFEC
:1012900008950E945C090C940A090E94FC0838F029
:1012A0000E94030920F0952311F00C94F3080C948C
:1012B000F90811240C943E090E941B0970F3959FB4
:1012C000C1F3950F50E0551F629FF001729FBB273D
:1012D000F00DB11D639FAA27F00DB11DAA1F649FD9
:1012E0006627B00DA11D661F829F2227B00DA11D8C
:1012F000621F739FB00DA11D621F839FA00D611D12
:10130000221F749F3327A00D611D231F849F600D32
:10131000211D822F762F6A2F11249F5750409AF05B
:10132000F1F088234AF0EE0FFF1FBB1F661F771FE7
:10133000881F91505040A9F79E3F510580F00C94B2
:10134000F3080C943E095F3FE4F3983ED4F386958E
:1013500077956795B795F795E7959F5FC1F7FE2B52
:10136000880F911D9695879597F90895990F000814
:10137000550FAA0BE0E8FEEF16161706E807F90767
:10138000C0F012161306E407F50798F0621B730B02
:10139000840B950B39F40A2661F0232B242B252B83
:1013A00021F408950A2609F4A140A6958FEF811D26
:1013B000811D0895A1E21A2EAA1BBB1BFD010DC0C1
:1013C000AA1FBB1FEE1FFF1FA217B307E407F507F5
:1013D00020F0A21BB30BE40BF50B661F771F881FD1
:1013E000991F1A9469F760957095809590959B0167
:1013F000AC01BD01CF010895EE0FFF1F0590F491E0
:10140000E02D09940E940D0AA59F900DB49F900DA8
:10141000A49F800D911D11240895A29FB001B39F38
:10142000C001A39F700D811D1124911DB29F700DED
:0C143000811D1124911D0895F894FFCF38
:02143C00403C32
:00000001FF
