S0250000456C6563747269635F57617465725F4865617465725F70726F6A6563742E7372656364
S11300000C9432000C9451000C944F000C944F004B
S11300100C944F000C94B5020C944F000C944F00B8
S11300200C944F000C944F000C944F000C94FC0162
S11300300C944F000C944F000C944F000C944F0000
S11300400C944F000C944F000C944F000C944F00F0
S11300500C944F00150419041D04210425042904DB
S11300602D04310411241FBECFE5D8E0DEBFCDBF7F
S113007010E0A0E6B0E0EAE9F4E102C005900D92D8
S1130080A236B107D9F720E0A2E6B0E001C01D9284
S1130090A83AB207E1F70E94F6000C944B0A0C94BC
S11300A000001F920F920FB60F9211242F933F93CB
S11300B04F935F936F937F938F939F93AF93BF936C
S11300C0EF93FF939091890081E0892780938900C1
S11300D0811113C00E94DC030E94E6030E94F60310
S11300E00E9428060E943A07109288000E94670323
S11300F00E9473030E94790307C00E94D6030E94E2
S11301003D0381E080938700FF91EF91BF91AF9110
S11301109F918F917F916F915F914F913F912F911B
S11301200F900FBE0F901F901895813001F590919C
S113013061009B34E0F465E0690F60936100809195
S1130140600090E00E948A0581E08093850080939E
S113015087000E94280685E00E94CA052FEF48E820
S113016053E160E070E080E00E9470060895613021
S113017001F5909161009432E0F06BEF690F6093A8
S113018061008091600090E00E948A0581E0809384
S11301908500809387000E94280685E00E94CA0596
S11301A02FEF48E853E160E070E080E00E947006C1
S11301B00895613021F490916100933231F08130DF
S11301C0A1F4809161008B3481F481E080938700F5
S11301D00E94280685E00E94CA052FEF48E853E1F3
S11301E060E070E080E00E947006089580E00E9464
S11301F09F0562E083E00E94560560E080E00E9473
S1130200320660E080E00E94440781E00E940C0412
S11302100E94AA030E94BF030E94D0030E94E2032B
S11302200E94EE030E94FA030E94C5038093A70074
S11302300E94B4038093A600809189008823A1F3CF
S113024080918500813039F48091600090E00E94B3
S113025096058093610085E00E94DC062FEF44E65A
S113026050E060E070E080E00E94810780918800A7
S1130270811119C08091A600813021F08091A700DE
S1130280813089F481E08093880080936B0085E05D
S11302900E94CA052FEF48E853E160E070E080E077
S11302A00E9470060CC08091A600813021F09091CC
S11302B0A700913021F46091A7000E949500C0919D
S11302C06100D0E0BE0165507109072E000C880B57
S11302D0990B0E9495084B015C01C0908100D0905D
S11302E08200E0908300F0908400A70196010E94B0
S11302F0ED0718164CF1BE016B5F7F4F072E000C03
S1130300880B990B0E9495089B01AC01C701B601AB
S11303100E94ED071816C4F00E94E6030E94F6033B
S11303201092860080916A00811137C00E940004F7
S11303308FE39CE90197F1F700C000000E940604D6
S113034081E080936A0029C0A7019601C501B40128
S11303500E944509181644F481E0809386001092A7
S11303606A000E94F60319C0BE016B5F7F4F072E1F
S1130370000C880B990B0E9495089B01AC01C701E6
S1130380B6010E944509181644F410928600109292
S11303906A000E94E6030E94F203809188008111A2
S11303A043CF60918100709182008091830090918D
S11303B084000E946408862F0E947F0335CFAC011D
S11303C090E060E070E00BC0E92FF0E0EE0FFF1F5B
S11303D0E40FF51F20813181620F731F9F5F9A30F4
S11303E098F380E090E00E94930820E030E040E23F
S11303F051E40E94F20708951F920F920FB60F92D4
S113040011244F925F926F927F928F929F92AF923C
S1130410BF92CF92DF92EF92FF920F932F933F936D
S11304204F935F936F937F938F939F93AF93BF93F8
S1130430EF93FF9380918700813061F410926600FE
S11304401092670010926800109269001092870061
S113045080936B0080916B00882339F00E943D03E8
S1130460809161000E947F0304C00E9467030E9480
S1130470730340906600509067006090680070902D
S11304806900609192007091930080919400909122
S11304909500461657066806790689F40E943D03BE
S11304A00E9428061092880010926B001092660039
S11304B010926700109268001092690025C02DEC1C
S11304C03CEC4CEC5CEC0E94EA0900E20E94170A46
S11304D0822E932EA42EB52EA501940156954795F0
S11304E0379527955695479537952795C301B201BA
S11304F00E94B709672B682B692B31F490916B002C
S113050081E0892780936B00809166009091670059
S1130510A0916800B09169000196A11DB11D80935E
S1130520660090936700A0936800B0936900FF9100
S1130530EF91BF91AF919F918F917F916F915F9157
S11305404F913F912F910F91FF90EF90DF90CF90BB
S1130550BF90AF909F908F907F906F905F904F90DF
S11305600F900FBE0F901F9018951F920F920FB609
S11305700F9211242F933F934F935F936F937F9325
S11305808F939F93AF93BF93CF93DF93EF93FF9397
S11305908091620090916300A0916400B091650025
S11305A04091A0005091A1006091A2007091A3001D
S11305B084179507A607B70760F40196A11DB11D1E
S11305C08093620090936300A0936400B0936500ED
S11305D041C0C0916C00D0E00E943804BC0180E0AE
S11305E090E00E94930820E030E04AEF53E40E9438
S11305F04A0920E030E040E85AE30E944A09CC0F5F
S1130600DD1FC359DF4F0E9464087983688380919A
S11306106C008F5F80936C008A30A0F010926C00A5
S11306208DE690E00E94DF01609381007093820068
S1130630809383009093840080918600813011F42C
S11306400E94EA0310926200109263001092640008
S113065010926500FF91EF91DF91CF91BF91AF911F
S11306609F918F917F916F915F914F913F912F91C6
S11306700F900FBE0F901F90189541E061E081E04C
S11306800E94400441E062E081E00E94400441E0B5
S113069064E080E00E94400441E065E080E00E9464
S11306A0400441E066E080E00E94400441E067E0ED
S11306B080E00E94400441E063E081E00E94400445
S11306C0089541E061E081E00E94B104089540E0B2
S11306D061E081E00E94B104089541E062E081E0BC
S11306E00E94B104089540E062E081E00E94B104F8
S11306F0089540E063E081E00E94B1040895CF933F
S11307009DEC899F912D1124292F269526952695B8
S1130710220F322F330F330F230F821B282FC92FA1
S1130720C695C695C6952295207F2BBB0E94610372
S11307300E9473038FE99FE00197F1F700C0000066
S11307409C2F9295907F9BBB0E9467030E946D0330
S1130750CF91089540E060E081E00E94400460E0B1
S113076081E00E945605089560E081E00E94220520
S1130770EFE3FCE93197F1F700C00000089540E091
S113078066E083E00E944004089566E083E00E94EE
S11307902205EFE3FCE93197F1F700C0000008956A
S11307A041E062E082E00E944004089541E062E09A
S11307B082E00E94B104089540E062E082E00E9479
S11307C0B104089584B3806884BB089585B38F779A
S11307D085BB089585B3805885BB089581B388602F
S11307E081BB089582B3886082BB089582B3877FFA
S11307F082BB089541E062E080E00E9440040895D5
S113080041E062E080E00E94B104089540E062E0CB
S113081080E00E94B104089590E08830910520F5AD
S1130820FC01E65DFF4F0C94D90987B1806487B958
S11308301BC087B1816487B917C087B1826487B947
S113084013C087B1836487B90FC087B1846487B943
S11308500BC087B1856487B907C087B1866487B93F
S113086003C087B1876487B986B1876A86B908955A
S113087086B1806486B9349BFECF84B195B1089566
S1130880442319F04130C9F10895813091F028F0E2
S11308908230D9F0833029F108952AB381E090E0C1
S11308A002C0880F991F6A95E2F7809582238ABB5C
S11308B0089527B381E090E002C0880F991F6A95DC
S11308C0E2F78095822387BB089524B381E090E00A
S11308D002C0880F991F6A95E2F78095822384BB32
S11308E0089521B381E090E002C0880F991F6A95B2
S11308F0E2F78095822381BB0895813089F028F046
S11309008230C9F0833011F108952AB381E090E078
S113091002C0880F991F6A95E2F7822B8ABB08955B
S113092027B381E090E002C0880F991F6A95E2F72F
S1130930822B87BB089524B381E090E002C0880F26
S1130940991F6A95E2F7822B84BB089521B381E055
S113095090E002C0880F991F6A95E2F7822B81BB51
S11309600895442319F04130C9F10895813091F07C
S113097028F08230D9F0833029F108952BB381E037
S113098090E002C0880F991F6A95E2F78095822350
S11309908BBB089528B381E090E002C0880F991FB3
S11309A06A95E2F78095822388BB089525B381E098
S11309B090E002C0880F991F6A95E2F78095822320
S11309C085BB089522B381E090E002C0880F991F8F
S11309D06A95E2F78095822382BB0895813089F07D
S11309E028F08230C9F0833011F108952BB381E0EF
S11309F090E002C0880F991F6A95E2F7822B8BBBA7
S1130A00089528B381E090E002C0880F991F6A9589
S1130A10E2F7822B88BB089525B381E090E002C001
S1130A20880F991F6A95E2F7822B85BB089522B33C
S1130A3081E090E002C0880F991F6A95E2F7822B4B
S1130A4082BB0895EFE3FCE93197F1F700C00000A1
S1130A50813079F028F08230A9F08330E1F024C0AD
S1130A6089B390E002C0959587956A95E2F7817005
S1130A70089586B390E002C0959587956A95E2F74C
S1130A808170089583B390E002C0959587956A9527
S1130A90E2F78170089580B390E002C09595879540
S1130AA06A95E2F78170089580E00895813089F0B5
S1130AB028F08230C9F0833011F108952BB381E01E
S1130AC090E002C0880F991F6A95E2F7822B8BBBD6
S1130AD0089528B381E090E002C0880F991F6A95B9
S1130AE0E2F7822B88BB089525B381E090E002C031
S1130AF0880F991F6A95E2F7822B85BB089522B36C
S1130B0081E090E002C0880F991F6A95E2F7822B7A
S1130B1082BB0895E199FECF9FBB8EBB6DBB8CB3A6
S1130B2084608CBB8CB382608CBB0895E199FECF4A
S1130B309FBB8EBB8CB381608CBB8DB3089591B386
S1130B409B7F91BB91B3977F91BB91B39B7F91BBEB
S1130B50789481110AC08BB780648BBF85B782609B
S1130B6085BF85B7816085BF0895813051F48BB707
S1130B7080688BBF85B7886085BF85B7846085BF73
S1130B800895823031F48BB780628BBF84B7806460
S1130B9084BF0895833061F128F4813049F08230B4
S1130BA0B9F008958430A1F1853009F441C0089565
S1130BB081E090E0909397008093960083B78B7FB9
S1130BC083BF83B78D7F83BF83B7816083BF08955D
S1130BD088E090E0909397008093960083B78B7F92
S1130BE083BF83B7826083BF83B78E7F83BF08953B
S1130BF080E490E0909397008093960083B78B7F76
S1130C0083BF83B7826083BF83B7816083BF089546
S1130C1080E091E0909397008093960083B784607E
S1130C2083BF83B78D7F83BF83B78E7F83BF0895D0
S1130C3080E094E0909397008093960083B784605B
S1130C4083BF83B78D7F83BF83B7816083BF0895DC
S1130C5083B78B7F83BF83B78D7F83BF83B78E7F3B
S1130C6083BF0895F894882319F0823059F013C093
S1130C7083B7877F83BF83B78F7B83BF89B7816047
S1130C8089BF09C083B7886083BF83B78F7B83BF65
S1130C9089B7826089BF613069F028F0623089F0D9
S1130CA06330B1F01BC083B78F7D83BF83B78F7E62
S1130CB083BF14C083B78F7D83BF83B7806183BF35
S1130CC00DC083B7806283BF83B78F7E83BF06C0A6
S1130CD083B7806283BF83B7806183BF78940895AC
S1130CE00F93811137C02091960030919700F9013C
S1130CF0F295E295EF70EF27FF70EF27A8EEB3E0CF
S1130D009A01AB010E94DF092E2F30E040E050E051
S1130D100E94B709BB27A52F942F832F0196A11DED
S1130D20B11D8093920090939300A0939400B0938C
S1130D30950080E091E0A0E0B0E0821B9109A10958
S1130D40B10980938A0090938B00A0938C00B09398
S1130D508D0030C0823071F52CBF20919600309107
S1130D609700F901F295E295EF70EF27FF70EF27F6
S1130D70A8EEB3E09A01AB010E94DF092E2F30E008
S1130D8040E050E00E94B709CA01B9010CB7202F16
S1130D9030E040E050E00E94B709DA01C901019651
S1130DA0A11DB11D80938E0090938F00A09390009D
S1130DB0B09391000F910895833061F128F481304C
S1130DC049F08230B9F008958430A1F1853009F4F6
S1130DD041C0089581E090E09093A5008093A40021
S1130DE085B58B7F85BD85B58D7F85BD85B58160D6
S1130DF085BD089588E090E09093A5008093A400B9
S1130E0085B58B7F85BD85B5826085BD85B58E7FB3
S1130E1085BD089580E490E09093A5008093A4009C
S1130E2085B58B7F85BD85B5826085BD85B58160BF
S1130E3085BD089580E091E09093A5008093A4007F
S1130E4085B5846085BD85B58D7F85BD85B58E7F6F
S1130E5085BD089580E094E09093A5008093A4005C
S1130E6085B5846085BD85B5826085BD85B58160A5
S1130E7085BD089585B58B7F85BD85B58D7F85BD81
S1130E8085B58E7F85BD0895882319F0823059F089
S1130E9013C085B5877F85BD85B58F7B85BD89B733
S1130EA0806489BF09C085B5886085BD85B58F7BA1
S1130EB085BD89B7806889BF613069F028F06230E8
S1130EC089F06330B1F01BC085B58F7D85BD85B5D4
S1130ED08F7E85BD14C085B58F7D85BD85B5806148
S1130EE085BD0DC085B5806285BD85B58F7E85BD08
S1130EF006C085B5806285BD85B5806185BD789461
S1130F0008950F93811137C02091A4003091A5005A
S1130F10F901F295E295EF70EF27FF70EF27A8EE45
S1130F20B3E09A01AB010E94DF092E2F30E040E0CC
S1130F3050E00E94B709BB27A52F942F832F019659
S1130F40A11DB11D8093A0009093A100A093A200C5
S1130F50B093A30080E091E0A0E0B0E0821B91098F
S1130F60A109B1098093980090939900A0939A00E5
S1130F70B0939B0030C0823071F523BD2091A40052
S1130F803091A500F901F295E295EF70EF27FF701B
S1130F90EF27A8EEB3E09A01AB010E94DF092E2FE0
S1130FA030E040E050E00E94B709CA01B9010CB733
S1130FB0202F30E040E050E00E94B709DA01C90177
S1130FC00196A11DB11D80939C0090939D00A09358
S1130FD09E00B0939F000F9108950E94D00808F4DA
S1130FE081E008950E9406080C940B090E940409EC
S1130FF058F00E94FD0840F029F45F3F29F00C945A
S1131000F40851110C943F090C94FA080E941C092D
S113101068F39923B1F3552391F3951B550BBB2723
S1131020AA2762177307840738F09F5F5F4F220F68
S1131030331F441FAA1FA9F335D00E2E3AF0E0E85F
S113104032D091505040E695001CCAF72BD0FE2FA9
S113105029D0660F771F881FBB1F2617370748073D
S1131060AB07B0E809F0BB0B802DBF01FF279358F5
S11310705F4F3AF09E3F510578F00C94F4080C94BD
S11310803F095F3FE4F3983ED4F3869577956795DF
S1131090B795F7959F5FC9F7880F911D969587952A
S11310A097F90895E1E0660F771F881FBB1F621749
S11310B073078407BA0720F0621B730B840BBA0B07
S11310C0EE1F88F7E09508950E94240988F09F5741
S11310D098F0B92F9927B751B0F0E1F0660F771F58
S11310E0881F991F1AF0BA95C9F714C0B13091F04E
S11310F00E943E09B1E008950C943E09672F782FB1
S11311008827B85F39F0B93FCCF386957795679512
S1131110B395D9F73EF490958095709561957F4F7E
S11311208F4F9F4F0895E89409C097FB3EF4909524
S11311308095709561957F4F8F4F9F4F9923A9F0AC
S1131140F92F96E9BB279395F6958795779567953B
S1131150B795F111F8CFFAF4BB0F11F460FF1BC07F
S11311606F5F7F4F8F4F9F4F16C0882311F096E912
S113117011C0772321F09EE8872F762F05C06623C0
S113118071F096E8862F70E060E02AF09A95660F79
S1131190771F881FDAF7880F9695879597F9089532
S11311A0990F0008550FAA0BE0E8FEEF1616170674
S11311B0E807F907C0F012161306E407F50798F0DC
S11311C0621B730B840B950B39F40A2661F0232BF5
S11311D0242B252B21F408950A2609F4A140A69571
S11311E08FEF811D811D089597F99F6780E870E056
S11311F060E008959FEF80EC089500240A94161689
S1131200170618060906089500240A9412161306F0
S1131210140605060895092E0394000C11F488237E
S113122052F0BB0F40F4BF2B11F460FF04C06F5F9A
S11312307F4F8F4F9F4F089557FD9058440F551F70
S113124059F05F3F71F04795880F97FB991F61F044
S11312509F3F79F087950895121613061406551FBB
S1131260F2CF4695F1DF08C0161617061806991F27
S1131270F1CF86957105610508940895E894BB271C
S113128066277727CB0197F908950E94D00808F4C0
S11312908FEF08950E945D090C940B090E94FD08CC
S11312A038F00E94040920F0952311F00C94F408FE
S11312B00C94FA0811240C943F090E941C0970F341
S11312C0959FC1F3950F50E0551F629FF001729FE7
S11312D0BB27F00DB11D639FAA27F00DB11DAA1FF6
S11312E0649F6627B00DA11D661F829F2227B00D43
S11312F0A11D621F739FB00DA11D621F839FA00DCE
S1131300611D221F749F3327A00D611D231F849F1D
S1131310600D211D822F762F6A2F11249F57504074
S11313209AF0F1F088234AF0EE0FFF1FBB1F661FEF
S1131330771F881F91505040A9F79E3F510580F0B8
S11313400C94F4080C943F095F3FE4F3983ED4F303
S1131350869577956795B795F795E7959F5FC1F75C
S1131360FE2B880F911D9695879597F90895A1E214
S11313701A2EAA1BBB1BFD010DC0AA1FBB1FEE1F0B
S1131380FF1FA217B307E407F50720F0A21BB30B56
S1131390E40BF50B661F771F881F991F1A9469F7D2
S11313A060957095809590959B01AC01BD01CF012E
S11313B00895EE0FFF1F0590F491E02D09940E940B
S11313C0330AA59F900DB49F900DA49F800D911D8D
S11313D011240895E894DF93CF93FC01DB010E946C
S11313E0330A7F936F93E9019A01AC01BF93AF93E2
S11313F03F932F93DF010E94330A26F46C1B7D0B6D
S1131400820B930B9E01EB01FC010E94420AAF91F7
S1131410BF912F913F910E94420ABE01CF01F90171
S11314202F913F91CF91DF91089597FB10F8169477
S113143000080F93083098F00850232F342F452FBD
S1131440562F672F782F892F902DF4CF05949795D9
S113145087957795679557954795379527950A9575
S1131460AAF70F910895A29FB001B39FC001A39F53
S1131470700D811D1124911DB29F700D811D1124C9
S1131480911D08950E94330A460F571FC81FD91F84
S10D149008F431960895F894FFCF94
S105149A403CD0
S9030000FC
